:100000000C94C8030C94DA030C94DA030C94410AA0
:100010000C94B9290C94DA030C94DA030C94DA03E7
:100020000C94DA030C94201C0C94DA030C944F1CEF
:100030000C94DA030C94DA030C94DA030C94DA03CC
:100040000C94791B0C94DA030C944C200C949B2098
:100050000C94DA030C94DA030C94DA030C94DA03AC
:100060000C94DA030C94DA039A107B108E11DF10D3
:10007000DF10DF1002117B107B108E110C118E111E
:1000800011112D113B118E118E118E11521166110D
:100090007A11E5113F12A9125513A91255136013D5
:1000A000A313F220F520F820FB20FE2001210421DB
:1000B00007210A210D211021132117282D281A2884
:1000C0001D2820282328262829285E2A672A6A2A0C
:1000D0006D2A702A732A762A5F2D5F2D5F2D762D6B
:1000E000892D922D9B2DA42DAD2DC42DCF2DD82D36
:1000F000E12DEA2DFB2D0A2E192E2C2E3B2E442EFF
:100100004D2E562E612E084AD73B3BCE016E84BC45
:10011000BFFDC12F3D6C74319ABD56833DDA3D0061
:10012000C77F11BED9E4BB4C3E916BAAAABE0000AA
:1001300000803F05A84CCDB2D44EB93836A9020C88
:1001400050B9918688083CA6AAAA2ABE0000008061
:100150003F000D0A4772626C20302E3863205B2707
:10016000242720666F722068656C705D0D0A004E52
:100170000059000D0A006F6B0D0A002028686F6D92
:10018000696E672070756C6C2D6F66662C206D6DC6
:10019000290D0A002028686F6D696E67206465620A
:1001A0006F756E63652C206D736563290D0A2432AB
:1001B000323D002028686F6D696E67207365656B3E
:1001C0002C206D6D2F6D696E290D0A2432313D0092
:1001D0002028686F6D696E6720666565642C206DE8
:1001E0006D2F6D696E290D0A2432303D00290D0AEC
:1001F0002431393D002028686F6D696E672064697D
:100200007220696E76657274206D61736B2C206943
:100210006E743A002028686F6D696E672063796399
:100220006C652C20626F6F6C290D0A2431383D00FB
:10023000202868617264206C696D6974732C206277
:100240006F6F6C290D0A2431373D002028696E76C6
:10025000657274207374657020656E61626C652CC4
:1002600020626F6F6C290D0A2431363D0020286111
:1002700075746F2073746172742C20626F6F6C29B7
:100280000D0A2431353D0020287265706F7274208C
:10029000696E636865732C20626F6F6C290D0A2488
:1002A00031343D0020286E2D646563696D616C7387
:1002B0002C20696E74290D0A2431333D0020286EEC
:1002C0002D61726320636F7272656374696F6E2C47
:1002D00020696E74290D0A2431323D002028617294
:1002E000632C206D6D2F7365676D656E74290D0A23
:1002F0002431313D0020286A756E6374696F6E2069
:10030000646576696174696F6E2C206D6D290D0AC4
:100310002431303D002028616363656C657261742F
:10032000696F6E2C206D6D2F7365635E32290D0A27
:1003300024393D002028737465702069646C652041
:1003400064656C61792C206D736563290D0A24380E
:100350003D00290D0A24373D002028737465702064
:10036000706F727420696E76657274206D61736B44
:100370002C20696E743A00202864656661756C747F
:10038000207365656B2C206D6D2F6D696E290D0ACC
:1003900024363D00202864656661756C74206665AE
:1003A00065642C206D6D2F6D696E290D0A24353D15
:1003B000002028737465702070756C73652C20752F
:1003C000736563290D0A24343D0020287A2C20739C
:1003D0007465702F6D6D290D0A24333D0020287936
:1003E0002C20737465702F6D6D290D0A24323D0029
:1003F0002028782C20737465702F6D6D290D0A24C8
:10040000313D0024303D000D0A00416C61726D20C9
:100410006C6F636B0042757379206F722071756524
:1004200075656400454550524F4D207265616420EA
:100430006661696C2E205573696E6720646566611C
:10044000756C74730056616C7565203C20332075A3
:100450007365630056616C7565203C20302E30005A
:1004600053657474696E672064697361626C656456
:1004700000496E76616C69642073746174656D65A2
:100480006E74004D6F64616C2067726F75702076BA
:10049000696F6C6174696F6E00496E76616C696436
:1004A0002072616469757300556E737570706F7238
:1004B0007465642073746174656D656E740045784D
:1004C00070656374656420636F6D6D616E64206C2C
:1004D000657474657200426164206E756D62657248
:1004E00020666F726D6174006572726F723A2000DF
:1004F0003E0D0A002C0057506F733A002C002C4D13
:10050000506F733A003C436865636B003C416C611B
:10051000726D003C486F6D65003C486F6C64003C38
:1005200052756E003C5175657565003C49646C659B
:10053000002E204D506F733F0D0A0041626F7274A0
:1005400020647572696E67206379636C6500486129
:100550007264206C696D697400414C41524D3A20BF
:10056000002424202876696577204772626C207306
:10057000657474696E6773290D0A242320287669CF
:100580006577202320706172616D657465727329CF
:100590000D0A24472028766965772070617273659B
:1005A00072207374617465290D0A244E20287669BF
:1005B0006577207374617274757020626C6F636B01
:1005C00073290D0A24783D76616C75652028736166
:1005D0007665204772626C2073657474696E672952
:1005E0000D0A244E783D6C696E652028736176652E
:1005F000207374617274757020626C6F636B290D67
:100600000A24432028636865636B2067636F646511
:10061000206D6F6465290D0A245820286B696C6C65
:1006200020616C61726D206C6F636B290D0A244828
:10063000202872756E20686F6D696E67206379631C
:100640006C65290D0A7E20286379636C65207374BC
:10065000617274290D0A2120286665656420686F1F
:100660006C64290D0A3F202863757272656E7420D0
:10067000737461747573290D0A6374726C2D78201C
:10068000287265736574204772626C290D0A005DDB
:100690000D0A002C005B4739323A005D0D0A002C30
:1006A0000033303A0032383A0035393A0035383ABA
:1006B0000035373A0035363A0035353A0035343AA8
:1006C000005B47005D0D0A00204600205400204DCD
:1006D0003800204D3900204D3500204D3400204D8C
:1006E0003300204D3200204D3100204D3000204796
:1006F0003934002047393300204739310020473949
:100700003000204732310020473230002047313955
:1007100000204731380020473137002047005B4731
:100720003830005B4733005B4732005B4731005B8A
:100730004730005D0D0A0044697361626C656400B6
:10074000456E61626C65640043617574696F6E3AF1
:1007500020556E6C6F636B656400272448277C27E7
:1007600024582720746F20756E6C6F636B00526580
:1007700073657420746F20636F6E74696E756500A5
:100780005B006F6B0D0A000D0A003D00244E000057
:1007900011241FBECFEFD8E0DEBFCDBF26E0A0E022
:1007A000B1E001C01D92A03FB207E1F70E94A92F5E
:1007B0000C9497350C9400000C940F302F923F92BC
:1007C0004F925F926F927F928F929F92AF92BF9261
:1007D000CF92DF92EF92FF920F931F93CF93DF930D
:1007E000CDB7DEB7E1970FB6F894DEBF0FBECDBF31
:1007F0002B013C0129833A834B835C83ED8AFE8A7B
:100800000F8B188FA98ABA8ACB8ADC8A89A2809139
:100810005E01873009F4F3C30E94992780915D013E
:100820008111EDC3809115062091240129AB821717
:1008300099F380911606282E312C40912701509172
:1008400028016091290170912A014D835E836F8395
:1008500078879A01AB01C301B2010E9424340E943F
:10086000F1336DA37EA38FA398A760912B017091A4
:100870002C0180912D0190912E0169877A878B87B9
:100880009C879B01AC0169817A818B819C810E944C
:1008900024340E94F13369A77AA78BA79CA7809183
:1008A0002F0190913001A0913101B09132018D87DB
:1008B0009E87AF87B88B9C01AD016D897E898F893A
:1008C000988D0E9424340E94F1336DA77EA78FA7D4
:1008D00098AB8BE3829DF001839DF00D1124E151D3
:1008E000FE4F108280918B0690918C06A0918D0610
:1008F000B0918E062DA13EA14FA158A5281739070A
:100900004A075B0714F420E2208300918F061091C0
:100910009006209191063091920649A55AA56BA5A3
:100920007CA540175107620773075CF44BE3429DB7
:10093000F001439DF00D1124E151FE4F40814068CC
:100940004083C0909306D0909406E0909506F09076
:1009500096064DA55EA56FA578A94C155D056E059B
:100960007F055CF44BE3429DF001439DF00D1124A3
:10097000E151FE4F4081406840834DA15EA16FA1CF
:1009800078A5481B590B6A0B7B0B49835A836B83F1
:100990007C8377FF0BC088279927DC01841B950B8C
:1009A000A60BB70B89839A83AB83BC83EBE3E29DF1
:1009B000C001E39D900D1124FC01E151FE4F89819E
:1009C0009A81AB81BC8181839283A383B48389A400
:1009D0009AA4ABA4BCA4801A910AA20AB30A9501F6
:1009E0008401B7FE07C000271127980108191909CB
:1009F0002A093B09EBE3E29DC001E39D900D112420
:100A0000FC01E151FE4F05831683278330878DA5B6
:100A10009EA5AFA5B8A98C199D09AE09BF096C01A7
:100A20007D012C013D01B7FF07C04424552432014C
:100A3000481A590A6A0A7B0AEBE3E29DC001E39D6A
:100A4000900D1124FC01E151FE4F418652866386D0
:100A5000748689819A81AB81BC8180179107A20736
:100A6000B30710F4D901C80189839A83AB83BC838F
:100A700084159505A605B70520F449825A826B8234
:100A80007C828BE3829D8001839D100D1124015196
:100A90001E4F89819A81AB81BC81F8018587968739
:100AA000A787B08B892B8A2B8B2B09F423C2CB0110
:100AB000BA010E94CF312D813E814F8158850E941D
:100AC0002531698F7A8F8B8F9C8FC501B4010E946D
:100AD000CF3129853A854B855C850E9425316D8F04
:100AE0007E8F8F8F98A3C701B6010E94CF312D85CD
:100AF0003E854F8558890E9425314B015C01298D27
:100B00003A8D4B8D5C8DCA01B9010E9424346B0172
:100B10007C012D8D3E8D4F8D58A1CA01B9010E94D7
:100B200024349B01AC01C701B6010E9426306B0141
:100B30007C01A5019401C501B4010E9424349B01EC
:100B4000AC01C701B6010E9426300E94C3346D8BF0
:100B50007E8B8F8B988FD8015D966D937D938D934F
:100B60009C9390979B01AC0160E070E080E89FE36C
:100B70000E9425312B013C01B9A1B11109C09B0193
:100B8000AC0169897A898B899C890E9424340AC0C6
:100B900029893A894B895C8960E070E080E89FE3AD
:100BA0000E9425316B017C019B01AC016D897E891E
:100BB0008F89988D0E9424346D8379878D87998BD6
:100BC0008BE3829D8001839D100D112401511E4FE6
:100BD000CB01AD85B989F801818B928BA38BB48B46
:100BE00069817A818B819C810E94CF3169A37AA32C
:100BF0008BA39CA39B01AC01C701B6010E942434C6
:100C00000E9404310E949E31D801D7966D937D9346
:100C10008D939C93DA97209142013091430140914A
:100C200044015091450129833A834B835C8329A178
:100C30003AA14BA15CA1C301B2010E9424342981D5
:100C40003A814B815C810E94243420E030E84BE300
:100C500055E40E9425310E9404310E949731D80149
:100C60009B966D937D938D939C939E97A301920188
:100C7000698D7A8D8B8D9C8D0E942434698F7A8F3B
:100C80008B8F9C8FA30192016D8D7E8D8F8D98A18E
:100C90000E9424346D8F7E8F8F8F98A3A3019201C1
:100CA000C501B4010E9424342B013C019091160629
:100CB00080911506981709F457C0E090A306F090AC
:100CC000A4060091A5061091A60620E030E0A90137
:100CD000B701C8010E943D3318160CF045C0809141
:100CE000970690919806A0919906B0919A06BC013A
:100CF000CD019058298D3A8D4B8D5C8D0E94243406
:100D00004B015C0120919B0630919C0640919D0611
:100D100050919E066D8D7E8D8F8D98A10E942434FA
:100D20009B01AC01C501B4010E9425304B015C015F
:100D300020919F063091A0064091A1065091A206F5
:100D4000C301B2010E9424349B01AC01C501B4016E
:100D50000E9425304B015C0123E333E343E75FE36B
:100D60000E941B3187FDECC0E12CF12C00E010E06B
:100D70008BE3829DF001839DF00D1124E151FE4F24
:100D8000C701D801818F928FA38FB48F69817A8137
:100D90008B819C8190589B01AC010E9426302D894B
:100DA0003E894F89588D0E9424349B01AC0160E03C
:100DB00070E0CB010E9425300E94C3345B016C01BE
:100DC0009B01AC01B701C8010E941B3187FD04C023
:100DD00075013C2D2D2D02C0302F212F8BE3829DDC
:100DE0008001839D100D112401511E4FC701A32FB7
:100DF000B22FF801858B968BA78BB08F9501A6013A
:100E00006D8179858D8599890E941B3118162CF08A
:100E100081E0D80192968C9302C0F80112A28BE374
:100E2000829DF001839DF00D1124E151FE4F81E080
:100E300081A3298D3A8D4B8D5C8D2093970630933D
:100E400098064093990650939A064D8D5E8D6F8D4E
:100E500078A140939B0650939C0660939D067093E7
:100E60009E0640929F065092A0066092A106709244
:100E7000A2068D819985AD85B9898093A30690934B
:100E8000A406A093A506B093A60659A950931606EA
:100E9000809116068F5F823109F480E080932401EF
:100EA0006DA17EA18FA198A560938B0670938C068F
:100EB00080938D0690938E0689A59AA5ABA5BCA5B7
:100EC00080938F0690939006A0939106B09392061C
:100ED0002DA53EA54FA558A92093930630939406BF
:100EE00040939506509396060E9442260E94FF2545
:100EF0000E94752580915E01811103C082E080937C
:100F00005E0180916C01882309F479C0E1960FB6E7
:100F1000F894DEBF0FBECDBFDF91CF911F910F912F
:100F2000FF90EF90DF90CF90BF90AF909F908F9009
:100F30007F906F905F904F903F902F900C94711F17
:100F40009701A8016D8179858D8599890E943D332E
:100F5000181624F0ED80F9840D85198923E333E315
:100F600043E75FEBC501B4010E943D3318160CF056
:100F7000FFCEA501940160E070E080E89FE30E944D
:100F8000253020E030E040E05FE30E9424340E94FE
:100F9000C3344B015C0120914601309147014091DF
:100FA00048015091490169817A818B819C810E941D
:100FB0002434A50194010E94243469A37AA38BA34D
:100FC0009CA3A501940160E070E080E89FE30E948B
:100FD00025309B01AC0169A17AA18BA19CA10E9443
:100FE00025310E94C3345B016C019701A8010E9466
:100FF0003D3318160CF4BCCE75018601B9CEE196CE
:101000000FB6F894DEBF0FBECDBFDF91CF911F9119
:101010000F91FF90EF90DF90CF90BF90AF909F9097
:101020008F907F906F905F904F903F902F9008959A
:101030002F923F924F925F926F927F928F929F92E8
:10104000AF92BF92CF92DF92EF92FF920F931F93D6
:10105000CF93DF93CDB7DEB7AC970FB6F894DEBF72
:101060000FBECDBF382E6D87242E098B1A8B2B8B8C
:101070003C8BFE0131968CE0DF011D928A95E9F7E9
:1010800030FE10C0609127017091280180912901E4
:1010900090912A010E94F13369837A838B839C8328
:1010A00011E001C010E031FE0FC01F5F60912B0105
:1010B00070912C0180912D0190912E010E94F133AD
:1010C0006D837E838F83988732FE0FC01F5F609190
:1010D0002F017091300180913101909132010E9475
:1010E000F13369877A878B879C87F985EA853B8509
:1010F0002C854D815E816F81788589819A81AB8154
:10110000BC8184179507A607B70710F4DB01CA0155
:10111000CF2EDE2EE32EF22EC816D906EA06FB06E7
:1011200010F46C017D01612F70E080E090E00E947E
:10113000CD310E94C3342B013C01C701B6010E948E
:10114000CD31A30192010E9425314B015C01209118
:1011500042013091430140914401509145010E9468
:10116000243420E030E84BE355E40E9425310E940E
:1011700004310E949E316DA37EA38FA398A7298975
:101180003A894B895C89C301B2010E942434A501CC
:1011900094010E9424349B01AC0160EC71EE84E662
:1011A0009CE40E9425310E94F1332B013C01683FF1
:1011B000B4E27B07B1E08B07910518F44B015C01A9
:1011C00007C038EF832E34E2932EAA24A394B12CC7
:1011D00010914B01107A80913D0118272D85211126
:1011E00002C080EA1827D701C601B695A795979542
:1011F000879522273327A901281B390B4A0B5B0B44
:101200002D873E874F87588B80913401A50194012B
:10121000281B31094109510929A33AA34BA35CA317
:101220008D859E85AF85B889898F9A8FAB8FBC8F4E
:101230008D8B9E8BAF8BB88F20E137E240E050E082
:10124000298B3A8B4B8B5C8B1D8E1E8E1F8E18A2AA
:1012500000E4E3B1222011F032E8E32730FE2FC092
:1012600049815A816B817C818D859E85AF85B88946
:10127000840F951FA61FB71F89A79AA7ABA7BCA766
:101280008D879E87AF87B88B181619061A061B061E
:10129000B4F4E1FF03C0612F602704C0932D9E7F4B
:1012A000392E612F29A53AA54BA55CA52C193D091E
:1012B0004E095F092D873E874F87588B01C0612FEC
:1012C00031FE2CC08D819E81AF81B8852D893E89EC
:1012D0004F89588D820F931FA41FB51F89A79AA706
:1012E000ABA7BCA78D8B9E8BAF8BB88F181619063A
:1012F0001A061B069CF4E7FF02C0605803C0332D9A
:101300003D7F332E89A59AA5ABA5BCA58C199D0957
:10131000AE09BF098D8B9E8BAF8BB88F32FE2CC070
:1013200029853A854B855C85898D9A8DAB8DBC8DE1
:10133000280F391F4A1F5B1F29A73AA74BA75CA795
:10134000298F3A8F4B8F5C8F1216130614061506E1
:10135000B4F4E7FF02C0605803C0932D9B7F392E81
:1013600029A53AA54BA55CA52C193D094E095F0995
:10137000298F3A8F4B8F5C8F332009F469C090918D
:101380005F0194FD65C09BB19F73862F807C892B84
:101390008BB96091340170E080E090E00E945027AA
:1013A0001BB969A17AA18BA19CA10E945027481466
:1013B00059046A047B0408F04CCF89899A89AB8967
:1013C000BC89880D991DAA1DBB1D898B9A8BAB8B7F
:1013D000BC8B81322EE49207A105B10508F439CF08
:1013E00080529E44A109B109898B9A8BAB8BBC8B2F
:1013F0008D8D9E8DAF8DB8A12DA13EA14FA158A579
:10140000820F931FA41FB51F8D8F9E8FAF8FB8A320
:1014100060E077E883E993E02D8D3E8D4F8D58A1F4
:101420000E94413553014201421653066406750677
:1014300010F449015A0180913401A5019401281B3F
:1014400031094109510929A33AA34BA35CA301CF58
:10145000AC960FB6F894DEBF0FBECDBFDF91CF9133
:101460001F910F91FF90EF90DF90CF90BF90AF90C2
:101470009F908F907F906F905F904F903F902F90B4
:1014800008951F920F920FB60F9211242F933F933E
:101490004F935F936F937F938F939F93AF93BF937C
:1014A000EF93FF9380915E01863059F080915F0148
:1014B00085FD07C00E94A12980915F01806480930F
:1014C0005F01FF91EF91BF91AF919F918F917F91BC
:1014D0006F915F914F913F912F910F900FBE0F90A1
:1014E0001F90189584B18D7784B985B1826885B9CC
:1014F00080914A0183FF09C080916B0082688093CC
:101500006B0080916800816008C080916B008D77CE
:1015100080936B00809168008E7F809368000895AF
:101520009F92AF92BF92CF92DF92EF92FF920F9372
:101530001F93CF93DF935B018A017C01E40EF51EBC
:10154000EC01912C6B01C81AD90AEC16FD06A9F022
:10155000C6018C0F9D1F0E940F30292D30E02115F0
:10156000310531F4220F232F221F330B217001C0CC
:1015700021E0982E920E8993E8CFC501800F911F2C
:101580000E940F3021E030E0981611F020E030E0AA
:10159000C901DF91CF911F910F91FF90EF90DF90E4
:1015A000CF90BF90AF909F900895CF93DF93CDB72A
:1015B000DEB72C970FB6F894DEBF0FBECDBF5A9A98
:1015C0005B9A5C98259A3A9A3B9A249A84E690E032
:1015D0000E94DC03082E000C990B90931F0180934E
:1015E0001E0185E690E00E94DC03082E000C990B9A
:1015F000909321018093200186E690E00E94DC0315
:10160000082E000C990B9093230180932201809166
:10161000C0008D7F8093C0001092C50087E6809344
:10162000C4008091C10080618093C1008091C1009D
:1016300088608093C1008091C10080688093C10060
:1016400089E40E94C52084E40E94C5208DE30E94A5
:10165000C52080911E010E94C520809120010E941A
:10166000C520809122010E94C52080E090E00E9468
:10167000DC03853061F446E350E061E070E087E22E
:1016800091E00E94900A892B09F40DC411C08530A5
:1016900008F009C443E250E061E070E087E291E0C5
:1016A0000E94900A892B09F4FEC380E00E94881FE3
:1016B00010E0BE016F5F7F4F812F0E942B208111B0
:1016C00003C08AE00E94E1201F5F183091F78AB1C1
:1016D000806E8AB98BB18F7190913D01892B8BB946
:1016E000209A809181008F7E80938100809181007B
:1016F000886080938100809180008D7F809380003E
:10170000809180008E7F80938000809180008F7315
:1017100080938000809180008F7C80938000109265
:10172000B0001092B10080917000816080937000D1
:101730000E94551F0E94371C789480E1EDE5F1E08E
:10174000DF011D928A95E9F781E080935D01809326
:101750005E0143E0242E312C56E2452E512C64E2EA
:10176000662E712C80915D01882309F499C08091C7
:10177000EE018093ED01809116068093150680910D
:1017800016068F5F823109F480E0809324018CE19A
:10179000EBE8F6E0DF011D928A95E9F785E3E7EAD9
:1017A000F6E0DF011D928A95E9F78091350190916D
:1017B0003601A0913701B09138018093AF06909324
:1017C000B006A093B106B093B20681E08093C10643
:1017D00092E09093C2068093AB0664EC76E080E0E2
:1017E0000E942B20811103C08AE00E94E12082E543
:1017F00091E00E9466253898409A80916C00816043
:1018000080936C00809168008260809368001092E1
:101810002501249A259A2C9810922601399A4198EC
:101820000E94720A84E2EAE1F6E0DF011D928A95E5
:10183000E9F760E273E080E090E00E94C31B109241
:10184000180610921706109219060E94EC261092A4
:101850005D0110925F0180914A0181FF03C091E018
:1018600090936C0190915E01913029F484FF03C044
:1018700086E080935E0180915E01863069F480E8A5
:1018800097E00E9466258AE597E00E94662583E33B
:1018900097E00E94662504C010925E010E94E92331
:1018A0000E94992782E3882E912C01E310E094E0B6
:1018B000E92EF12C26E0C22ED12C35E0A32EB12C3E
:1018C0009091EE018091ED01981303C02D984298FC
:1018D000E0C22D9A429A9091ED01E92FF0E0E35990
:1018E000FE4F80819F5F903819F09093ED0102C008
:1018F0001092ED018F3F09F4CCC220911C01309170
:101900001D012132310509F46DC0BCF423303105CD
:1019100009F4EFC03CF42130310599F1E4F5232BB3
:1019200051F1CECF2530310509F4E2C10CF4B8C134
:101930002630310509F423C2C3CF2632310509F41C
:1019400071C05CF42432310509F4C0C00CF05BC0F6
:101950002332310509F4A7C0B3CF28323105B9F1DC
:101960000CF46DC02133310509F45BC1223331051C
:1019700009F480C1A5CF893409F0A2CF81E090E0BD
:1019800005C0843409F0AFC182E090E090931D015E
:1019900080931C0195CF8A3340F4803360F48D30FE
:1019A00009F0A1C188E290E0F1CF8D3309F09BC12D
:1019B00081E290E0EBCF90E020911E0130911F0179
:1019C0008217930709F08FC183E290E0DFCF809107
:1019D0001E010E94C520809120010E94C520809197
:1019E00022015EC090ED980F9A3008F07CC190E023
:1019F0009093170180931601E5E2F0E0F0931D014A
:101A0000E0931C015DCF90ED980F9A3008F06BC108
:101A100090E0909319018093180150921D0140921B
:101A20001C014ECF90ED980F9A3008F05CC190E009
:101A300090931B0180931A0187E290E0A7CF8D302D
:101A400019F08A3009F04FC1609116018091170199
:101A500060931E0180931F018091180190911901DC
:101A6000909321018093200180911A0190911B0194
:101A7000909323018093220184E690E00E94173026
:101A80006091180185E690E00E94173060911A017C
:101A900086E690E00E9417308FE60E94C5208BE614
:101AA0000E94C52020C190ED980F9A3008F01BC10C
:101AB00090E020912001309121018217930709F0D5
:101AC00012C170921D0160921C01FACE90ED980F28
:101AD0009A3008F008C190E0209122013091230152
:101AE0008217930709F0FFC030921D0120921C015C
:101AF000E7CE8A35D9F068F4893409F48DC0803591
:101B000081F08A3309F0EFC0F0921D01E0921C01D0
:101B1000D9C0803731F08A3749F0893609F0E3C0FF
:101B20007BC010931D0100931C01CACE28982D9AEA
:101B3000429A5D985E982198299A19991FC05D9ADA
:101B400080E090E02CE231E05E9A21503109E1F72B
:101B50002CE231E05E9821503109E1F781309105A6
:101B600019F42C9A439A02C02C9843980196843F0A
:101B7000A1E09A0739F784EF91E002C080E090E09D
:101B80005D985E98199B1CC02CE231E05E9A215052
:101B90003109E1F72CE231E05E9821503109E1F79B
:101BA0009C012F5F3F4F68EE73E00E942D35019737
:101BB00021F42C9A439AC901E5CF2C984398FBCF86
:101BC0002C984398289A2D98429810926001109270
:101BD000610110926201109263011092B30610929B
:101BE000B4061092B5061092B6061092C406109272
:101BF000C5061092C6061092C7061092D006109223
:101C0000D1061092D2061092D3060E94EC2686E7E7
:101C100091E00E94662567C090921D0180921C0190
:101C20004FCE8A3049F560916001709161018091D9
:101C30006201909163010E94CF3120912701309180
:101C400028014091290150912A010E9425312091BB
:101C50004A0120FF06C02BE832E441E25DE30E9426
:101C600024340E94152410921D0110921C0183E758
:101C700091E013C08A3021F08D3009F421CE33C0B9
:101C800010921D0110921C0180915E01811103C010
:101C900081E791E002C08FE691E00E94662510CEB8
:101CA000883541F018F48634A9F01DC0863691F0CD
:101CB0008837C9F480911501882339F010921D01ED
:101CC00010921C01109215013BC0B0921D01A09210
:101CD0001C01DCC0809114018111F0CFD0921D0154
:101CE000C0921C012DC010921D0110921C01E8CD64
:101CF0008E3279F030F48A30D9F08D3009F4E0CDAD
:101D0000BFC0803308F4BCC08A3318F0863459F061
:101D1000B7C0E091150191E09E0F90931501F0E09E
:101D2000E65FFE4F46C0809114018823B9F2A8C037
:101D300080911501811107C010921D0110921C01A4
:101D400010921401BDCD97E49093DC0691E390933B
:101D5000DD0698E59093DE06AFEDB6E0EAE0F1E04F
:101D600090E09F012A503140281739071CF4219137
:101D70002D93F7CFFC01E452F94F138277C08A33D9
:101D800050F4803368F48D3009F49ACD8E3241F0EE
:101D90008A30B1F075C0883571F0883761F070C055
:101DA000E091140191E09E0F90931401F0E0E05057
:101DB000FF4F808385CD8091150181117FCF66C053
:101DC00080911401882309F4B7CFE0911501EE2327
:101DD000A9F197E49093DC0691E39093DD0698E5F2
:101DE0009093DE062FED36E0AAE0B1E06E2F70E0B2
:101DF000AD014A505140461757072CF49D91F90107
:101E000091939F01F5CF9B012452394F96E4D9015C
:101E100013969C93FB01E052F94FA0E0B1E090E0F3
:101E2000AD0140505140481759071CF44D91419362
:101E3000F7CFF901E80FF91F148218C096E49093C8
:101E4000DC062DED36E0A0E0B1E0482F50E0CD01FA
:101E500080509140841795072CF48D91F90181935E
:101E60009F01F5CFFA01E452F94F11820E949927A0
:101E700080915D0181110DC00E94EF290E942B22EB
:101E800010921D0110921C01109214011092150164
:101E900017CD80915E01811103C02C98439862CCCC
:101EA0002C9A439A5FCC8AE00E94E12081E00E9454
:101EB000881F0E941C21FCCB9F92AF92BF92CF92B1
:101EC000DF92EF92FF920F931F93CF93DF935C010A
:101ED000EB017A016B01C40ED51E8C01912C692D8A
:101EE000CC15DD05A9F070E06115710531F4660FC0
:101EF000672F661F770B617001C061E08991962E94
:101F0000980E682FC8010E9417300F5F1F4FE7CF50
:101F1000C5018E0D9F1DDF91CF911F910F91FF90F5
:101F2000EF90DF90CF90BF90AF909F900C941730C0
:101F30002F923F924F925F926F927F928F929F92D9
:101F4000AF92BF92CF92DF92EF92FF920F931F93C7
:101F5000CF93DF93CDB7DEB7CB55D1090FB6F89449
:101F6000DEBF0FBECDBF1AA6FE0179968CE0DF0161
:101F7000282F1D922A95E9F73C97DF011D928A953B
:101F8000E9F71092A7061BA6912C212C312CCC240A
:101F9000C394D12C15E0B12E01E082E0F82E93E03D
:101FA000E92E24E0A22EAE01465D5F4FBE016B5DBF
:101FB0007F4FCE0189960E94822F892B09F482C01F
:101FC0004DA05EA06FA078A4C301B2010E940735A6
:101FD0000E949731CB0129A5273421F02D3409F433
:101FE0005BC0E1CF6E31710511F40C941E191CF524
:101FF00064317105B4F46131710514F00C942D1A3B
:102000006430710511F40C941E1924F477FF38C064
:102010000C9409196A30710511F40C941E190C9472
:1020200009196631710594F16C31710511F00C9448
:1020300009190C941E196C357105ACF46A357105DB
:1020400014F56C33710554F46633710514F565337A
:10205000710511F40C941E190C9409196035710561
:1020600079F00C9409196C35710511F40C941E1952
:102070006F35710514F00C94091916E00C941F19B2
:1020800012E00C941F1914E00C941F1917E00C9423
:102090001F1919E00C941F19663071054CF4633058
:1020A00071056CF477FF02C00C94B61A0C947C1A7C
:1020B0006E31710511F40C947C1A0C94B61A18E068
:1020C0000C947D1A8091A70681110C94E81A1AA627
:1020D00000E01CA61DA61EA61FA6412C512C3201F5
:1020E00018AE19AE40E84AAF5FEB5BAF10E0F3E02B
:1020F000AF2EA6E08A2EAE01465D5F4FBE016B5D3E
:102100007F4FCE0189960E94822F892B09F409C145
:10211000E9A48E2D0E2C000C990BAA0BBB0BFC0115
:10212000E654F109E531F10508F0F8C0EC5CFF4F29
:102130000C946335BDA0CEA0EFA0F8A420E030E061
:10214000A9016B2D7C2DC7010E941B31181614F0BC
:102150008092A7069091A9068091AA069923A9F0DA
:10216000811105C0B8AEC9AEEAAEFBAEC4CF23E361
:1021700033E34BEC51E46B2D7C2DC7010E942434DA
:1021800068AF79AF8AAF9BAFB6CF882351F023E316
:1021900033E34BEC51E46B2D7C2DC7010E942434BA
:1021A00003C06B2D7C2DC7016B017C01C092AF0673
:1021B000D092B006E092B106F092B2069CCF0E2CFF
:1021C000000CFF0889E4E81AF1086DA17EA18FA137
:1021D00098A52091AA06222331F023E333E34BECA8
:1021E00051E40E942434EE0CFF1CEE0CFF1CE1E0D5
:1021F000F0E0EC0FFD1FEE0DFF1D648775878687ED
:10220000978779CF6DA17EA18FA198A50E940735F0
:102210000E949E31062F6FCF4DA05EA06FA078A4C4
:102220006ACF2DA13EA14FA158A52CA73DA74EA72F
:102230005FA78091AA06882309F45DCF23E333E3E7
:102240004BEC51E46CA57DA58EA59FA50E9424347E
:102250006CA77DA78EA79FA74ECF20E030E0A901F5
:102260006DA17EA18FA198A50E941B3187FF43CF4E
:102270008092A70640CFCDA0DEA0EFA0F8A420E07A
:1022800030E0A901C701B6010E941B3187FD809291
:10229000A706C701B6010E9407350E949E316093D0
:1022A000BF0629CF6DA17EA18FA198A52091AA0676
:1022B000222331F023E333E34BEC51E40E94243436
:1022C000698F7A8F8B8F9C8F116015CF6DA17EA146
:1022D0008FA198A52091AA06222331F023E333E3AE
:1022E0004BEC51E40E9424346D8F7E8F8F8F98A326
:1022F000126001CF6DA17EA18FA198A52091AA06A1
:10230000222331F023E333E34BEC51E40E942434E5
:1023100069A37AA38BA39CA31460EDCEA092A70619
:10232000EACE8091A70681110C94E81A80915E0193
:10233000873049F1F090AD062F2D0F2C000C330B98
:102340008091250190E02817390769F00E948429BF
:10235000FF2031F014F02D9801C02D9A2C9A01C065
:102360002C98F0922501F090AE0680912601F81687
:1023700051F00E94842931E0F31202C0419A01C059
:102380004198F092260131FE13C0BE016F5F7F4F6E
:102390008091C3060E942B20882309F4DCC18CE0C5
:1023A000FE013196A4ECB6E001900D928A95E1F71A
:1023B0004BA5842F90E0FC013197E830F10508F03F
:1023C000CCC1E75BFF4F0C94633520E030E0A901FE
:1023D000C301B2010E941B3187FF04C086E08093D5
:1023E000A706BBC180915E01873009F4B6C120E029
:1023F00030E040EA51E4C301B2010E9424340E945B
:102400000A320E949E316B017C010E94842920E0E7
:1024100030E04AE754E4C301B2010E9424342B01A6
:102420003C0182E38C9DB0018D9D700D112480E0F4
:1024300090E00E94CD319B01AC01C301B2010E942A
:1024400025300E940A320E949E31CB010E948E27C5
:10245000C114D10409F481C10E94992751E0C51A21
:10246000D10880915D01811178C18FEF90E7A2E0E2
:1024700081509040A040E1F700C00000E9CFC301C7
:10248000B2010E940735023011F0043151F40E946C
:1024900097317B01B1E0EB1AF108E6E0EE16F104AA
:1024A00010F083E005C0111106C0023021F486E06F
:1024B0008093A706F8C0043181F463EB76E08E2D9B
:1024C0000E9422208091C30690E0E816F90609F0E8
:1024D000EAC08CE0E3EBF6E039C0BE016F5F7F4FEE
:1024E0008E2D0E942B20882309F435C1DE015996D8
:1024F000FE01319680E090E0212F30E0A901082E06
:1025000002C0559547950A94E2F740FF09C04D91E6
:102510005D916D917C9113974083518362837383A6
:102520000196149634968330910541F7BE016F5F92
:102530007F4F8E2D0E9422208091C30690E0E816E6
:10254000F90609F0B0C08CE0FE013196A4ECB6E0CB
:10255000A6C0112309F479C08090AB067E01F9E191
:10256000EF0EF11C67EAC62E66E0D62EA12CB12C28
:10257000012F10E0C8010A2C02C0959587950A9496
:10258000E2F780FF33C08820F9F0D60199962D91AB
:102590003D914D915C919C975D966D917D918D9152
:1025A0009C9190970E9426309B01AC01F7016081BD
:1025B0007181828193810E942630D7016D937D9332
:1025C0008D939C9313971CC0F60124853585468511
:1025D0005785D7016D917D918D919C910E942630F8
:1025E000F70160837183828393830AC0F601848537
:1025F0009585A685B785F70180839183A283B383F0
:10260000FFEFAF1ABF0A24E0E20EF11C34E0C30E64
:10261000D11C43E0A416B10409F0ACCFA09039015D
:10262000B0903A01C0903B01D0903C01E9A0FAA0E3
:102630000BA11CA12D8D3E8D4F8D58A1698D7A8DDA
:102640008B8D9C8D812C0E94DE035BA5553011F093
:1026500086E001C087E0BE016F5F7F4F0E942B20A4
:10266000882309F478C0A0903901B0903A01C09055
:102670003B01D0903C01E984FA840B851C852D81B7
:102680003E814F81588569817A818B819C81812C23
:102690000E94DE038CE0FE013196A3EBB6E00190D0
:1026A0000D928A95E1F710E058C08BA5863011F0A5
:1026B00086E001C087E063EB76E00E9422204DC0F7
:1026C000112309F4F4CE57EAE52E56E0F52E5E010B
:1026D00099E1A90EB11CC12CD12C012F10E0C80129
:1026E0000C2C02C0959587950A94E2F780FF1DC0D7
:1026F000D7015D962D913D914D915C9190971C96DF
:102700006D917D918D919C911F970E942530F501CF
:1027100020813181428153810E942530D7019996D1
:102720006D937D938D939C939C97BFEFCB1ADB0A9F
:10273000E4E0EE0EF11CF4E0AF0EB11C23E0C21693
:10274000D10469F6B0CF8CE0E0EDF6E0DF011D9238
:102750008A95E9F702C08AE03BC722FC03C0112337
:1027600009F441C5B091A906BBA7BB23D1F020E075
:1027700030E0A90168AD79AD8AAD9BAD0E941B31F7
:1027800087FF0FC08091A806843071F086E08093A7
:10279000A706992009F43BC58091A806823030F441
:1027A00008C09110F9CF05C0992019F086E08093F8
:1027B000A7068091A70681110BC70091AB067E0189
:1027C000E9E1EE0EF11C47EAC42E46E0D42EA12C1E
:1027D000B12C612E712CC3010A2C02C095958795EE
:1027E0000A94E2F780FF35C091103DC00023F9F054
:1027F000D60199962D913D914D915C919C975D9656
:102800006D917D918D919C9190970E9426309B01B6
:10281000AC01F70160817181828193810E94263031
:10282000D7016D937D938D939C9313971CC0F601F4
:102830002485358546855785D7016D917D918D918C
:102840009C910E942630F701608371838283938379
:102850000AC0F60184859585A685B785F701808332
:102860009183A283B383FFEFAF1ABF0A24E0E20E85
:10287000F11C34E0C30ED11C43E0A416B10409F0EE
:10288000AACF5091A8065CAB543040F4523008F007
:102890004CC0552371F0513021F198C48CA984307B
:1028A00009F094C4112309F491C486E08093A7062B
:1028B0008DC41123D1F3A0903901B0903A01C0909A
:1028C0003B01D0903C01E9A0FAA00BA11CA12D8DE9
:1028D0003E8D4F8D58A1698D7A8D8B8D9C8D812C6D
:1028E00073C4112311F39BA5911109C0B091AF06D8
:1028F000A091B006F091B106E091B20604C0B8AD67
:10290000A9ADFAADEBADE9A0FAA00BA11CA12D8DEC
:102910003E8D4F8D58A1698D7A8D8B8D9C8D8BA4AA
:10292000AB2EBA2ECF2EDE2E4FC4A091C206A8AB7E
:10293000EA2FF0E06096FFAFEEAF609781E090E0A5
:1029400001C0880FAA95EAF78095182309F4ADCF46
:1029500020E030E0A9016CA57DA58EA59FA50E9471
:102960001B319091C00681112EC0E1E0F0E0EC0F28
:10297000FD1F24E0929FE00DF11D1124C484D58435
:10298000E684F78420E030E0A901C701B6010E9487
:102990001B311091C106811100C120E030E0A90176
:1029A000E1E0F0E0EC0FFD1F84E0189FE00DF11D69
:1029B000112464857585868597850E941B3188233F
:1029C00009F473CFEAC0892F90E08C01000F111F2A
:1029D000000F111FA1E0B0E0AC0FBD1FA00FB11F91
:1029E000F801ED54F94F208131814281538158968D
:1029F0006D917D918D919C915B970E9425304B014B
:102A00005C018091C10690E01C01220C331C220C59
:102A1000331CE1E0F0E0EC0FFD1FE20DF31DD101EE
:102A2000AD54B94F2D913D914D915C91608D718D5B
:102A3000828D938D0E9425302B013C01FE013D9635
:102A40008CE0DF011D928A95E9F720E030E040E854
:102A500050E46CA57DA58EA59FA50E9424342CA5CD
:102A60003DA54EA55FA50E9424346B017C01A50104
:102A70009401C501B4010E9424349B01AC01C7013B
:102A8000B6010E9425306B017C01A3019201C301B4
:102A9000B2010E9424349B01AC01C701B6010E941F
:102AA00025306B017C0120E030E0A9010E941B3140
:102AB00087FF04C084E08093A7068AC5C701B601DA
:102AC0000E94C3346B017C01A3019201C501B401D2
:102AD0000E9450339B01AC01C701B60190580E947F
:102AE00025316B017C01BCA9B33021F4F7FAF094D5
:102AF000F7F8F09420E030E0A9016CA57DA58EA543
:102B00009FA50E941B3187FF0DC0F7FAF094F7F8DC
:102B1000F0942CA53DA54EA55FA550582CA73DA728
:102B20004EA75FA741E050E04C0F5D1F040F151F3B
:102B3000A7019601C301B2010E9424349B01AC019C
:102B4000C501B4010E94253020E030E040E05FE3A1
:102B50000E942434D8011C966D937D938D939C9391
:102B60001F9701E010E00C0F1D1F020D131DA701A0
:102B70009601C501B4010E942434A30192010E9470
:102B8000263020E030E040E05FE30E942434F8018A
:102B9000648775878687978715C0E1E0F0E0EC0FC2
:102BA000FD1F24E0129FE00DF11D112424853585C1
:102BB00046855785C701B6010E9450336CA77DA793
:102BC0008EA79FA73BA531110CC04091AF0648AF1F
:102BD0005091B00659AF8091B1068AAF9091B2067C
:102BE0009BAFA091C106ACAFB091C0062196BFAF1C
:102BF0002197E4E0BE9F800111242DE030E02C0FEE
:102C00003D1F200F311F62963FAF2EAF6297D90153
:102C10008D909D90AD90BC90F801ED54F94F2081BE
:102C2000318142815381C501B4010E9426306696EC
:102C30006CAF7DAF8EAF9FAF6697ECADB4E0EB9F0E
:102C4000100111242DE030E02C0F3D1F220D331D0B
:102C500068963FAF2EAF6897D901CD90DD90ED908B
:102C6000FC90F101ED54F94F208131814281538173
:102C7000C701B6010E9426306C966CAF7DAF8EAF57
:102C80009FAF6C97E8A9B4E0EB9FC0011124FC0151
:102C9000ED54F94F20813181428153812A962CAF26
:102CA0003DAF4EAF5FAF2A97E9E1F0E0EC0FFD1FBB
:102CB000E80FF91F60817181828193810E94253024
:102CC0002E966CAF7DAF8EAF9FAF2E97240135014E
:102CD00077FA709477F87094D701C601B05888AB32
:102CE00099ABAAABBBABE9E1F0E0EC0FFD1FE00F45
:102CF000F11F66962CAD3DAD4EAD5FAD6697608120
:102D00007181828193810E9425306B017C01E9E110
:102D1000F0E0EC0FFD1FE20DF31D6C962CAD3DAD08
:102D20004EAD5FAD6C9760817181828193810E940D
:102D300025304B015C01A7019601C301B2010E943D
:102D4000243426966CAF7DAF8EAF9FAF2697A5013A
:102D5000940168A979A98AA99BA90E9424349B019E
:102D6000AC0126966CAD7DAD8EAD9FAD26970E94D1
:102D7000263026966CAF7DAF8EAF9FAF2697A5010C
:102D80009401C301B2010E9424344B015C01A701EC
:102D9000960168A979A98AA99BA90E9424349B015C
:102DA000AC01C501B4010E94253026962CAD3DAD85
:102DB0004EAD5FAD26970E94A5306B017C019CA9AA
:102DC00020E030E0A901923079F4C701B6010E94F9
:102DD0003D3387FD19C02BED3FE049EC50E4C701BE
:102DE000B6010E9425300EC0C701B6010E941B31FA
:102DF000181654F02BED3FE049EC50E4C701B60142
:102E00000E9426306B017C01A70196016CA57DA56F
:102E10008EA59FA50E9424342E962CAD3DAD4EADBF
:102E20005FAD2E975F770E9450334B015C0120E02D
:102E300030E0A9010E941B31882309F4C7C1209109
:102E40003E0130913F014091400150914101C50147
:102E5000B4010E9425310E940A320E949E312496BC
:102E60007FAF6EAF24974B01A12CB12CABA5AA2349
:102E700081F0C501B4010E94CD319B01AC0168AD68
:102E800079AD8AAD9BAD0E94243468AF79AF8AAF2B
:102E90009BAFC501B4010E94CD314B015C019B0188
:102EA000AC01C701B6010E9425316CA77DA78EA792
:102EB0009FA7A50194012E966CAD7DAD8EAD9FAD03
:102EC0002E970E9425312E966CAF7DAF8EAF9FAFAF
:102ED0002E9720E030E040E05FE36CA57DA58EA555
:102EE0009FA50E9424342CA53DA54EA55FA50E9458
:102EF00024349B01AC0160E070E080E89FE30E9415
:102F000025306CAB7DAB8EAB9FAB6096EEADFFAD6D
:102F10006097EE0FFF1FEE0FFF1F21E030E02C0F38
:102F20003D1FE20FF31F2A968CAD9DADAEADBFAD38
:102F30002A9780839183A283B383912C22242394A4
:102F4000312CD90121963FAD219724E0329FA00D6D
:102F5000B11D11242896BFAFAEAF289741E050E0D5
:102F60004C0F5D1F9CAD84E0989F400D511D1124B6
:102F700060965FAF4EAF60972296FFAFEEAF22979D
:102F80002496AEADBFAD24972A163B0608F00BC1C0
:102F900080915C0190E0292D092C000C330B28173F
:102FA0003907F4F528A939A94AA95BA96CA97DA913
:102FB0008EA99FA90E9424346B017C01A301920178
:102FC0006CA57DA58EA59FA50E942434A70196011E
:102FD0000E9426305B018C01A30192016CA97DA99E
:102FE0008EA99FA90E9424346B017C0128A939A9CC
:102FF0004AA95BA96CA57DA58EA59FA50E94243436
:103000009B01AC01C701B6010E9425302B013C0198
:10301000939465017801C8AAD9AAEAAAFBAA68C054
:10302000B10180E090E00E94CD312CA53DA54EA5D8
:103030005FA50E9424346B017C010E94203168ABA3
:1030400079AB8AAB9BABC701B6010E94B5344B018B
:103050005C016296EEADFFAD6297C080D180E280E8
:10306000F380F7FAF094F7F8F0946896AEADBFAD40
:1030700068972D913D914D915C912CAF3DAF4EAF36
:103080005FAFA701960168A979A98AA99BA90E94A7
:1030900024342B013C012CAD3DAD4EAD5FADC501DF
:1030A000B4010E9424349B01AC01C301B2010E940F
:1030B00026302B013C01A7019601C501B4010E94F5
:1030C00024346B017C012CAD3DAD4EAD5FAD68A9E4
:1030D00079A98AA99BA90E9424349B01AC01C7014C
:1030E000B6010E94253068AB79AB8AAB9BAB912CC3
:1030F000A301920166966CAD7DAD8EAD9FAD6697D6
:103100000E9426302896EEADFFAD2897608371832C
:103110008283938328A939A94AA95BA96C966CADCF
:103120007DAD8EAD9FAD6C970E9426306096AEADA2
:10313000BFAD60976D937D938D939C9313972E965F
:103140002CAD3DAD4EAD5FAD2E972296EEADFFADF1
:10315000229760817181828193810E94263022961C
:10316000AEADBFAD22976D937D938D939C931397D6
:10317000E984FA840B851C852D813E814F81588519
:1031800069817A818B819C818BA4A8ACB9ACCAACD3
:10319000DBAC0E94DE0380915D01811117C0BFEF9F
:1031A0002B1A3B0AEDCEE9A0FAA00BA11CA12D8D94
:1031B0003E8D4F8D58A1698D7A8D8B8D9C8D8BA402
:1031C000A8ACB9ACCAACDBAC0E94DE038091A70608
:1031D0008111FEC18CE0FE017996A3EBB6E001906F
:1031E0000D928A95E1F78091AC06882369F00E94E0
:1031F000842910926C018091AC06823019F40E94EF
:10320000A12902C01092AC068091A706E1C186E018
:10321000DFC185319105E9F510E01092AA060AC0D8
:10322000823091050CF055C0892B09F04EC010E09A
:103230001092A80611111AC00C94D30F11E0853119
:10324000910559F30CF028C18430910509F451C15E
:103250000CF405C18231910509F44CC00CF014C185
:103260008A30910509F00CC132E03BA7C60102C0CB
:10327000880F991F1A95E2F79C0122213321232BF5
:1032800021F0B092A7060C94D30F282A392A0C9467
:10329000D30F863191050CF059C08430910509F4A3
:1032A000D8C024F58130910509F0BACF10E0009321
:1032B000A806C0CF863391050CF084C08C319105EF
:1032C00009F456C04E9709F453C010E0E092A706E7
:1032D000B1CF8230910521F410E0F092A806AACF78
:1032E000039799F710E0E092A806A4CF82319105E8
:1032F00041F410E01092C006F092C1060093C2069D
:1033000099CF833191058CF48A30910521F4B2E094
:10331000BBA70C94D30F4197C1F610E01092C006E2
:103320000093C106F092C20685CF8331910541F426
:1033300010E00093C006F092C1061092C2067ACF48
:10334000449719F610E00093AA0674CF80359105D2
:1033500021F410E0A092A8066DCF81359105D4F537
:103360008533910509F0A6CF10E09924939462CF9C
:1033700010E020E030E040E251E4C301B2010E94DD
:1033800024340E9407350E9497316931E1E07E07BD
:10339000B1F03CF46831714009F098CF53E05BA77D
:1033A00049CF6C3231E0730739F06D32714009F06A
:1033B0008DCF96E09BA73ECF85E08BA73BCFF4E077
:1033C000FBA738CFCC970CF080CF10E0665360930A
:1033D000C30630CF8C359105D9F410E020E030E001
:1033E00040E251E4C301B2010E9424340E94073537
:1033F0000E9497316839A3E07A0739F06939734040
:1034000009F064CF28E02BA715CFE7E0EBA712CF98
:103410008D3591057CF48A35910521F410E00093F7
:10342000AB0608CF8B35910509F04FCF10E0109215
:10343000AB0600CF8D35910521F410E00093A9066D
:10344000F9CE8E35910509F040CF10E01092A90613
:10345000F1CEE1E0EBA70C94D30F13E0F0CE813076
:10346000910509F424CF24F4892B09F4E1CE2ECF61
:103470008230910509F431CF039709F434CF26CF78
:10348000419709F44BCF22CF8331910509F451CFF5
:10349000449709F458CF1ACF8035910509F45ACFD3
:1034A0008CF48533910509F460CF44F48C31910597
:1034B00009F45FCF4E9709F45CCF08CFCC970CF49A
:1034C00085CF04CF8C35910509F488CF4CF48A352B
:1034D000910509F4A4CF8B35910509F4A8CFF6CE58
:1034E0008D35910509F4AACF8E35910509F4AECF3B
:1034F000EDCEF1E0FBA7BACE15E08430910521F4C2
:103500008FEF8093AD0696CE85309105BCF4813067
:10351000910509F4ABCE34F4892B09F0D7CE009392
:10352000AC0688CE8230910519F4F092AC0682CEBA
:10353000039709F0CBCE0093AD067CCE8830910581
:1035400019F40093AE0676CE8930910534F40597D0
:1035500009F0BCCE1092AD066DCE8930910519F4FC
:103560001092AE0667CE4E9701F3B0CE843091052F
:1035700011F410E0C5CF85309105ACF48130910590
:1035800011F40C94D30F2CF4892B09F09ECE10E08B
:10359000C6CF8230910511F410E0C7CF039709F030
:1035A00094CE10E0C8CF8830910511F410E0C9CF57
:1035B000893091052CF4059709F087CE10E0CACF29
:1035C0008930910511F410E0CBCF4E9729F37DCED1
:1035D000C55ADF4F0FB6F894DEBF0FBECDBFDF91E7
:1035E000CF911F910F91FF90EF90DF90CF90BF9000
:1035F000AF909F908F907F906F905F904F903F9093
:103600002F900895CF93DF9323E3829FC00111246D
:10361000EC01DD5F42E350E0BE018CED96E00E94DC
:10362000900A892B59F41092DC0642E350E06CEDCD
:1036300076E0CE010E945C0F80E001C081E0DF9166
:10364000CF9108954091320650913306609134062F
:103650007091350680912E0690912F06A09130062C
:10366000B0913106840F951FA61FB71F813022EE3F
:10367000920724E0A207B10550F48093320690939C
:103680003306A0933406B093350680E00895925E29
:10369000A440B1098093320690933306A093340678
:1036A000B093350681E008953FB7F894809187067E
:1036B00090918806A0918906B0918A0626B5A89BAC
:1036C00005C02F3F19F00196A11DB11D3FBFBA2FB4
:1036D000A92F982F8827820F911DA11DB11DBC0114
:1036E000CD0142E0660F771F881F991F4A95D1F7D9
:1036F00008951F920F920FB60F9211242F933F93AC
:103700008F939F93AF93BF9380918306909184068C
:10371000A0918506B09186063091820623E0230FA2
:103720002D3720F40196A11DB11D05C026E8230FF9
:103730000296A11DB11D209382068093830690936B
:103740008406A0938506B0938606809187069091A3
:103750008806A0918906B0918A060196A11DB11D27
:103760008093870690938806A0938906B0938A0673
:10377000BF91AF919F918F913F912F910F900FBE6D
:103780000F901F9018959B01AC01203283E0380701
:103790004105510520F420E233E040E050E060E0D4
:1037A00070E788E399E30E9441352115310581E0F6
:1037B0004807510518F4B90181E02FC021153105E2
:1037C00088E048075105A8F4DA01C901F3E0B6958D
:1037D000A79597958795FA95D1F7BC019C01AD0106
:1037E000A3E0220F331F441F551FAA95D1F782E093
:1037F00014C0DA01C90126E0B695A795979587957B
:103800002A95D1F7BC019C01AD01E6E0220F331FE0
:10381000441F551FEA95D1F783E090918100987F6E
:10382000892B809381007093890060938800209396
:103830002E0630932F06409330065093310608959C
:103840001F920F920FB60F9211248F939F938BB1FB
:1038500090913D01907C8F73892B8BB91092B100B0
:103860009F918F910F900FBE0F901F901895809190
:103870006F008D7F80936F0080915A018F3F21F4FC
:1038800090915F0195FF089590E00E948E278091AE
:103890004A0182FF02C028980895289A08951F922D
:1038A0000F920FB60F9211240F931F932F933F93F4
:1038B0004F935F936F937F938F939F93AF93BF9338
:1038C000CF93DF93EF93FF93809119068111D8C2B4
:1038D0008BB190918106907A8F75892B8BB98BB1C2
:1038E0008F7390918106892B8BB98091800680938C
:1038F000B20082E08093B10081E080931906789451
:10390000C0911706D0911806209709F08AC09091AF
:10391000160680911506981741F0C09115068BE3A5
:10392000C89FE0011124C151DE4FD0931806C09307
:103930001706209709F46EC080915E018330D1F4A0
:103940006BA17CA18DA19EA1609336067093370672
:1039500080933806909339060E94C31B80E091E75C
:10396000A2E0B0E08093320690933306A093340631
:10397000B09335068BA59CA5ADA5BEA5AC01BD0138
:103980007595679557954795840F951FA61FB71F87
:1039900080933A0690933B06A0933C06B0933D0675
:1039A0004D855E856F857889DB01CA01B595A79540
:1039B00097958795B095A095909581959F4FAF4F1E
:1039C000BF4F80931A0690931B06A0931C06B093DA
:1039D0001D0680931E0690931F06A0932006B093A9
:1039E00021068093220690932306A0932406B09389
:1039F0002506409326065093270660932806709369
:103A0000290610922A0610922B0610922C0610926C
:103A10002D0607C00E94371C80915F01846080934F
:103A20005F01C0911706D0911806209709F41FC2B4
:103A300028812093810640911A0650911B066091BF
:103A40001C0670911D0689819A81AB81BC81840F0F
:103A5000951FA61FB71F80931A0690931B06A0936D
:103A60001C06B0931D06181619061A061B068CF5BF
:103A7000322F3064309381064091260650912706FC
:103A80006091280670912906841B950BA60BB70B35
:103A900080931A0690931B06A0931C06B0931D06F4
:103AA0008091600190916101A0916201B0916301E8
:103AB00025FF04C00197A109B10903C00196A11D0A
:103AC000B11D8093600190936101A0936201B09356
:103AD000630140911E0650911F066091200670916F
:103AE00021068D819E81AF81B885840F951FA61F09
:103AF000B71F80931E0690931F06A0932006B093D5
:103B00002106181619061A061B0664F5209181066F
:103B100020682093810640912606509127066091E7
:103B2000280670912906841B950BA60BB70B809372
:103B30001E0690931F06A0932006B0932106809145
:103B4000640190916501A0916601B09167010197B0
:103B5000A109B1098093640190936501A093660166
:103B6000B09367014091220650912306609124068C
:103B70007091250689859A85AB85BC85840F951F34
:103B8000A61FB71F8093220690932306A0932406B6
:103B9000B0932506181619061A061B0664F520911F
:103BA00081062068209381064091260650912706C1
:103BB0006091280670912906841B950BA60BB70B04
:103BC0008093220690932306A0932406B0932506A3
:103BD0008091680190916901A0916A01B0916B0197
:103BE0000197A109B1098093680190936901A0939D
:103BF0006A01B0936B0180912A0690912B06A091E7
:103C00002C06B0912D060196A11DB11D80932A06A8
:103C100090932B06A0932C06B0932D064D855E85C0
:103C20006F85788984179507A607B70708F00DC137
:103C300020915E01243029F50E94221B882309F47B
:103C400016C18091360690913706A0913806B09142
:103C500039060BA51CA52DA53EA5081719072A078F
:103C60003B0740F00E94371C80915F018460809385
:103C70005F01FDC0BC01CD01601B710B820B930B7A
:103C8000DBC04FA558A969A97AA984179507A6078B
:103C9000B707C8F50E94221B882309F4E8C04091A9
:103CA00036065091370660913806709139068BA51B
:103CB0009CA5ADA5BEA5840F951FA61FB71F809319
:103CC000360690933706A0933806B09339064FA96D
:103CD00058AD69AD7AAD84179507A607B70740F0D0
:103CE0004093360650933706609338067093390632
:103CF00060913606709137068091380690913906AA
:103D00000E94C31BB4C04BA95CA96DA97EA98417EE
:103D10009507A607B70708F47EC084179507A6077E
:103D2000B70779F54091360650913706609138060D
:103D3000709139068FA998ADA9ADBAAD481759074A
:103D40006A077B0729F480E091E7A2E0B0E010C0A9
:103D500040913206509133066091340670913506D9
:103D600080E092EEA4E0B0E0841B950BA60BB70BAD
:103D70008093320690933306A0933406B0933506B1
:103D800076C00E94221B882309F471C080913606F8
:103D900090913706A0913806B091390640913A06C5
:103DA00050913B0660913C0670913D0648175907BB
:103DB0006A077B0748F44BA55CA56DA57EA5841B0F
:103DC000950BA60BB70B04C0B695A795979587954D
:103DD0008093360690933706A0933806B093390641
:103DE0008FA198A5A9A5BAA540913606509137068E
:103DF0006091380670913906481759076A077B07A2
:103E000008F076CF8093360690933706A093380655
:103E1000B09339066DCF6FA978AD89AD9AAD009199
:103E2000360610913706209138063091390606176C
:103E3000170728073907D9F06093360670933706BD
:103E400080933806909339065BCF10921806109233
:103E500017069091160680911506981741F08091EB
:103E600015068F5F823109F480E0809315069091EA
:103E7000810680913D018927809381061092190661
:103E8000FF91EF91DF91CF91BF91AF919F918F9172
:103E90007F916F915F914F913F912F911F910F9162
:103EA0000F900FBE0F901F90189580914A0182FFCE
:103EB00002C0289A01C0289880915E01833081F465
:103EC00080913D018093810680913401880F845058
:103ED00081958093800680916F00826080936F004F
:103EE000089580915E01823029F483E080935E0121
:103EF0000C94551F089565E080E090E00E94173013
:103F000046E350E067E271E081E090E00C945C0FE2
:103F1000882309F45EC080E090E0AAE7B4E48093CF
:103F2000270190932801A0932901B0932A0180E0F2
:103F300090E0AAE7B3E480932B0190932C01A09327
:103F40002D01B0932E0180932F0190933001A09307
:103F50003101B09332012AE020933401809335017E
:103F600090933601A0933701B093380180E090E040
:103F7000AAEFB3E48093390190933A01A0933B01F7
:103F8000B0933C0180E090EAACE0B7E4809342015A
:103F900090934301A0934401B09345018DEC9CECB8
:103FA000ACECBDE380933E0190933F01A0934001B0
:103FB000B093410180EA80933D018DEC9CECACE430
:103FC000BDE38093460190934701A0934801B093CD
:103FD000490182E080934A0110924B0180E090E019
:103FE000A8ECB1E480934C0190934D01A0934E0155
:103FF000B0934F0180E090E0AAE7B3E480935001D2
:1040000090935101A0935201B093530184E690E044
:10401000909355018093540180E090E0A0E8BFE3C5
:104020008093560190935701A0935801B093590182
:1040300089E180935A0193E090935B0180935C0146
:104040000C947B1F2DE0829FC00111244CE050E0B6
:104050009E5F0C945C0F1F93CF93DF93182FEB019F
:104060008DE0189FB00111247E5F4CE050E0CE013E
:104070000E94900A892B59F48CE0FE0111928A95D6
:10408000E9F7BE01812F0E94222080E001C081E07B
:10409000DF91CF911F9108951F920F920FB60F924B
:1040A00011242F933F934F935F936F937F938F933D
:1040B0009F93AF93BF93EF93FF938091C60081329C
:1040C00091F028F48831A9F40E94A12923C08F33EC
:1040D00031F08E3771F480915F01826007C080916A
:1040E0005F01816003C080915F01886080935F0100
:1040F00011C0E091EE0191E09E0F903809F490E03C
:104100002091ED01921731F0F0E0E359FE4F8083EA
:104110009093EE01FF91EF91BF91AF919F918F919D
:104120007F916F915F914F913F912F910F900FBEB3
:104130000F901F9018951F920F920FB60F92112497
:104140008F939F93EF93FF9380917F06E82FF0E08A
:10415000E15CF94F90819093C6008F5F803409F441
:1041600080E080937F0690913E06891305C0809180
:10417000C1008F7D8093C100FF91EF919F918F913E
:104180000F900FBE0F901F901895E0913E0691E0A2
:104190009E0F903409F490E020917F06291305C00A
:1041A00020915F0124FFF8CF0895F0E0E15CF94F22
:1041B000808390933E068091C10080628093C1000D
:1041C0000895CF93C82F88EE94E00E9466258C2F27
:1041D00090E0FC013197EC30F10548F5EF5AFF4FC4
:1041E0000C94633586ED94E020C08EEB94E01DC006
:1041F00088EA94E01AC089E994E017C083E894E063
:1042000014C081E794E011C080E694E00EC084E51C
:1042100094E00BC085E494E008C084E294E005C01B
:1042200085E194E002C08AE094E00E94662587E080
:1042300094E0CF910C946625CF93DF9383E094E0D4
:104240000E946625C7E2D1E0688179818A819B81DD
:104250000E94152480EF93E00E9466256C817D8189
:104260008E819F810E9415248DED93E00E9466252A
:10427000688579858A859B850E9415248AEC93E060
:104280000E9466256D8570E080E090E00E94BF246A
:1042900081EB93E00E9466256E857F8588899989E8
:1042A0000E94152484E993E00E9466256A897B892F
:1042B0008C899D890E94152487E793E00E946625DA
:1042C0006E8970E080E090E00E94BF2489E593E071
:1042D0000E9466258E890E94332582E593E00E9424
:1042E00066256BA970E080E090E00E94BF2484E323
:1042F00093E00E94662520E030E041E655E46B8DB6
:104300007C8D8D8D9E8D0E9425310E94152485E126
:1043100093E00E9466256F8D78A189A19AA10E94E1
:10432000152485EF92E00E9466256F89788D898D2E
:104330009A8D0E9415248CED92E00E9466256DA94D
:1043400070E080E090E00E94BF248DEB92E00E943C
:1043500066256CA970E080E090E00E94BF2484EAAA
:1043600092E00E9466256BA1617070E080E090E0B1
:104370000E94BF2487E892E00E9466256BA16695A3
:10438000617070E080E090E00E94BF248DE692E0D2
:104390000E9466256BA162FB662760F970E080E0F1
:1043A00090E00E94BF248BE492E00E9466256BA1FE
:1043B00063FB662760F970E080E090E00E94BF2414
:1043C00080E392E00E9466256BA16295617070E0C7
:1043D00080E090E00E94BF2484E192E00E94662584
:1043E0006CA170E080E090E00E94BF2485EF91E036
:1043F0000E9466258CA10E9433258DEE91E00E94DB
:1044000066256DA17EA18FA198A50E94152480ED3F
:1044100091E00E94662569A57AA58BA59CA50E94BE
:10442000152483EB91E00E9466256DA57EA580E0B2
:1044300090E00E94BF2484E991E00E9466256FA568
:1044400078A989A99AA90E9415248BE791E0DF91A8
:10445000CF910C946625811104C082E897E00C94FA
:1044600066250C94E1204F925F926F927F92AF92FB
:10447000BF92CF92DF92EF92FF920F931F93CF9351
:10448000DF938C01EB01FC01458856886788708CAE
:10449000AD88BE88CF88D88C9501A601C301B20132
:1044A0000E941B3187FF42C0A3019201C301B201E8
:1044B0000E9424342B013C018091420190914301E0
:1044C000A0914401B0914501BC01CD0190589B01E0
:1044D000AC010E942630F801258D368D478D50A104
:1044E0000E9424349B01AC01C301B2010E9425301B
:1044F0000E94C3347B018C019B01AC01B501C60154
:104500000E941B3187FF02C0750186019701A80137
:10451000B501C6010E941B31882341F0C701D801B3
:104520008D8B9E8BAF8BB88F81E089A3DF91CF916C
:104530001F910F91FF90EF90DF90CF90BF90AF90C1
:104540007F906F905F904F9008954F925F926F921F
:104550007F928F929F92AF92BF92CF92DF92EF9213
:10456000FF920F931F93CF93DF93CDB7DEB7629780
:104570000FB6F894DEBF0FBECDBF9A8B898B2A0190
:104580003B0148015901FC0167A970AD81AD92ADB5
:104590000E94CD316B017C01A30192010E94243461
:1045A0000E9404310E949E312B013C01E989FA8965
:1045B00063A374A385A396A3A5019401C701B601C3
:1045C0000E9424340E9404310E949E314B015C0100
:1045D000E989FA8967A370A781A792A723A534A5C3
:1045E00045A556A5A2E3B0E00E9469350E94CF31EF
:1045F00020E030E040E752E40E9424340E949731EA
:1046000069837A838B839C830E94CF316D837E8301
:104610008F839887C301B2010E94CD312B013C01E9
:10462000A7019601C701B6010E9424346B017C01E9
:10463000A3019201C301B2010E94243469877A87E1
:104640008B879C872D813E814F815885CA01B90196
:104650000E9426306D877E878F87988B29853A85C3
:104660004B855C85C701B6010E9425302D853E85AE
:104670004F8558890E9425310E9404310E9497314C
:104680002B013C01C501B4010E94CD319B01AC015D
:104690000E9424344B015C01A70196010E94253041
:1046A0006B017C0169817A818B819C8190958095D9
:1046B000709561957F4F8F4F9F4F0E94CF319B0127
:1046C000AC010E9426309B01AC01C701B6010E94DB
:1046D00025310E940A32E989FA89C584D684E784A3
:1046E000F088A7019601241935094609570929833D
:1046F0003A834B835C830E94973129813A814B81B5
:104700005C81261B370B480B590BDA01C90157FF97
:104710003BC0C701B6010E94CF312D853E854F8534
:1047200058890E94243429853A854B855C850E94EE
:104730002530A50194010E9426304B015C0120E048
:1047400030E040E850E46D817E818F8198850E9441
:1047500024349B01AC01C501B4010E9425310E94A3
:1047600004310E94973197FF03C060E070E0CB01F5
:10477000260137016C157D058E059F0514F42B016C
:104780003C0180E090E0DC01E989FA8947A650AA63
:1047900061AA72AA480E591E6A1E7B1E43AA54AA19
:1047A00065AA76AA62960FB6F894DEBF0FBECDBF9B
:1047B000DF91CF911F910F91FF90EF90DF90CF90FD
:1047C000BF90AF909F908F907F906F905F904F9031
:1047D00008950F931F93CF93C0E08C2F0E94021B6C
:1047E000811104C08AE00E94E12018C08091DC069B
:1047F0008823A1F00CED16E0F80181918F01882348
:1048000019F00E94C520F8CF80915E01863019F022
:104810000E94980F01C08CE00E942B22CF5FC23013
:10482000E1F6CF911F910F9108958F929F92AF92D1
:10483000BF92CF92DF92EF92FF920F931F93CF938D
:10484000DF93CDB7DEB72A970FB6F894DEBF0FBE61
:10485000CDBF6B017C0120E030E0A9010E941B313B
:1048600087FF07C08DE20E94C520F7FAF094F7F8A1
:10487000F09400915B01102F123060F020E030E0E6
:1048800048EC52E4C701B6010E9424346B017C015C
:104890001250F2CF00FF0AC020E030E040E251E4C5
:1048A000C701B6010E9424346B017C0120E030E096
:1048B00040E05FE3C701B6010E9426300E949731B5
:1048C000E1E0F0E0EC0FFD1FE00FF11D2EE2208390
:1048D00010E03AE0832E912CA12CB12C61157105CA
:1048E0008105910511F480E315C0101301C01F5F0D
:1048F000EE24E394F12CEC0EFD1EE10EF11CA5015B
:1049000094010E944135605DF7016083B901CA01DD
:104910001F5FE4CF101748F4E1E0F0E0EC0FFD1F5B
:10492000E10FF11D80831F5FF5CF10130BC081E0F5
:10493000810FE1E0F0E0EC0FFD1FE80FF11D1E5FBD
:1049400080E38083112341F0FE01E10FF11D80819E
:104950000E94C5201150F6CF2A960FB6F894DEBFFC
:104960000FBECDBFDF91CF911F910F91FF90EF90C0
:10497000DF90CF90BF90AF909F908F9008958F92CF
:104980009F92AF92BF92CF92DF92EF92FF92CF931E
:10499000DF93CDB7DEB72A970FB6F894DEBF0FBE10
:1049A000CDBF6B017C0197FF0BC08DE20E94C5203B
:1049B000F094E094D094C094C11CD11CE11CF11C73
:1049C000C701B601CD28CE28CF2899F480E32A96D6
:1049D0000FB6F894DEBF0FBECDBFDF91CF91FF9031
:1049E000EF90DF90CF90BF90AF909F908F900C94FE
:1049F000C52020E04AE0842E912CA12CB12CFF246C
:104A0000F394F20ECC24C394D12CCC0EDD1EC20E36
:104A1000D11CA50194010E944135605DF6016083BF
:104A2000B901CA012F2D611571058105910539F76D
:104A3000FF2041F0FE01EF0DF11D80810E94C52095
:104A4000FA94F6CF2A960FB6F894DEBF0FBECDBF0C
:104A5000DF91CF91FF90EF90DF90CF90BF90AF901C
:104A60009F908F900895EF92FF920F931F93CF9393
:104A7000DF93CDB7DEB728970FB6F894DEBF0FBE31
:104A8000CDBF9E012F5F3F4F79018E01075F1F4F02
:104A9000F901982F917091938695E017F107C9F766
:104AA000F80182918F01805D0E94C5200E151F05BF
:104AB000B9F728960FB6F894DEBF0FBECDBFDF91D1
:104AC000CF911F910F91FF90EF900895CF93DF93B7
:104AD000FC018491EF012196882321F00E94C520DA
:104AE000FE01F7CFDF91CF9108954F925F926F92C1
:104AF0007F928F929F92AF92BF92CF92DF92EF926E
:104B0000FF920F931F93CF93DF93F0901506C0E0B1
:104B1000D0E08BE3E82E80911606F81609F441C028
:104B20008F2D90E0E89E9001E99E300D1124A9019F
:104B300041515E4F6A01209761F129A1211104C002
:104B4000FA0121A1222329F189889A88AB88BC889F
:104B5000E89EF001E99EF00D1124E151FE4FA50100
:104B60009401658976898789908D0E9425312B0172
:104B70003C01A50194016D897E898F89988D0E94E1
:104B80002531AB01BC0193018201CE010E94A52217
:104B900019A2F394F2E1FF1611F0E601BCCFF12C5B
:104BA000FCCFC988DA88EB88FC88A701960160E011
:104BB00070E0CB010E9425314B015C01A7019601F9
:104BC0006D897E898F89988D0E942531AB01BC014A
:104BD00095018401CE010E94A52219A2DF91CF91F7
:104BE0001F910F91FF90EF90DF90CF90BF90AF900B
:104BF0009F908F907F906F905F904F900895EF926D
:104C0000FF920F931F93CF93DF93C091150610E08F
:104C1000D0E080E090E00BE320911606C217D9F0B7
:104C20000C9F90011124A90141515E4F7A01009718
:104C300041F0FC0122A1211104C0612F7D2F0E94AF
:104C40003322CF5FC23129F0812F9D2F1E2DDF2D02
:104C5000E3CFC0E0F9CF009771F0FC0122A1211150
:104C60000AC0612F7D2FDF91CF911F910F91FF908F
:104C7000EF900C943322DF91CF911F910F91FF9011
:104C8000EF9008952F923F924F925F926F927F9292
:104C90008F929F92AF92BF92CF92DF92EF92FF924C
:104CA0000F931F93CF93DF9310911606409042010C
:104CB00050904301609044017090450177FA7094E0
:104CC00077F87094A12CB12CC0E0D0E08BE3C82E13
:104CD00080911506181709F46CC0111101C012E17A
:104CE0001150C19EC00111249C0121513E4F190158
:104CF000209719F45E01E101EBCFA114B104D1F3C7
:104D0000D98CEA8CFB8C0C8D2D2D3E2D4F2D502FE8
:104D10006D897E898F89988D0E941B31882351F37C
:104D20008AA181113BC0F50185889688A788B08C3F
:104D3000A50194016D2D7E2D8F2D902F0E943D3366
:104D4000181664F5A5019401C501B4010E9424342C
:104D50004B015C01A3019201C301B2010E94263004
:104D60002D8D3E8D4F8D58A10E9424349B01AC01A6
:104D7000C501B4010E9425300E94C3344B015C017F
:104D80009B01AC016D2D7E2D8F2D902F0E941B312C
:104D900087FD04C0D82CE92CFA2C0B2D8D2D9E2DCF
:104DA000AF2DB02F8D8B9E8BAF8BB88FF1E0F9A319
:104DB000A1CFDF91CF911F910F91FF90EF90DF90E6
:104DC000CF90BF90AF909F908F907F906F905F90AB
:104DD0004F903F902F9008958F929F92AF92BF92E5
:104DE000CF92DF92EF92FF920F931F93CF93DF93B7
:104DF000EDE5F1E0C384D484E584F6848780908473
:104E0000A184B2846381748185819681EBE8F6E0A8
:104E1000608371838283938384829582A682B78222
:104E2000C086D186E286F386C7EAD6E00E94CF31FB
:104E300007E211E0F80120813181428153810E9413
:104E400025316C877D878E879F87C501B4010E94BD
:104E5000CF31F80124813581468157810E94253167
:104E6000688B798B8A8B9B8BC701B6010E94CF31EF
:104E7000F80120853185428553850E9425316C8B50
:104E80007D8B8E8B9F8BDF91CF911F910F91FF9028
:104E9000EF90DF90CF90BF90AF909F908F9008954C
:104EA0006115710581059105C1F16A3071058105B2
:104EB000910548F425E02A95F1F700006150710949
:104EC00081099109EDCF643671058105910548F49A
:104ED000E5E3EA95F1F700006A507109810991094B
:104EE000DFCF683EF3E07F078105910558F4EFE8D6
:104EF000F1E03197F1F700C00000645671098109B3
:104F00009109CECFEFE9FFE03197F1F700C0000043
:104F1000685E734081099109C3CF0895009741F0FD
:104F2000EFE9FFE03197F1F700C000000197F6CFFD
:104F300008953F924F925F926F927F928F929F92CD
:104F4000AF92BF92CF92DF92EF92FF920F931F9397
:104F5000CF93DF93CDB7DEB768970FB6F894DEBF77
:104F60000FBECDBF80915F01882309F4B5C1309099
:104F70005F01832D8076F1F186E080935E0189E503
:104F800095E036FE24C00E9466258EE495E00E94DE
:104F9000662581E395E00E94662584EF91E00E94FA
:104FA0008E2780E897E00E9466258EE697E00E94B3
:104FB000662583E397E00E94662580915F018F7EDE
:104FC00080935F0180915F0184FFFCCF0EC00E943F
:104FD00066258BE395E00E94662581E395E00E94BB
:104FE000662584EF91E00E948E2780915F018F7982
:104FF00080935F0134FE04C081E080935D016CC149
:1050000030FEC9C08CE0E0E6F1E0DE011D960190C3
:105010000D928A95E1F7E0915E018E2F90E0883045
:105020009105D8F4FC01E35AFF4F0C9463358BE2F1
:1050300095E011C084E295E00EC08FE195E00BC0D1
:1050400089E195E008C083E195E005C08CE095E03A
:1050500002C085E095E00E9466258EEF94E00E94F4
:1050600066256E018DE0C80ED11C97E2A92E91E055
:10507000B92E8E010F5F1F4F4E01E9E18E0E911C7C
:105080007801F60161917191819191916F01F50122
:1050900041905190619071905F010E94CF31A301C6
:1050A00092010E9425313701F70160837183828369
:1050B000938320914A0120FF0BC02BE832E441E2A8
:1050C0005DE30E942434F7016083718382839383BC
:1050D000F4E0EF0EF11CF301608171818281938114
:1050E0000E9415248CEF94E00E946625C814D90410
:1050F00041F686EF94E00E94662587EAE82E86E076
:10510000F82ED12C80914A01F70121A532A543A5A3
:1051100054A580FF0DC0658D768D878D90A10E946E
:1051200026302BE832E441E25DE30E94243406C0DD
:10513000658D768D878D90A10E9426309B01AC01F4
:10514000F80160817181828193810E942530F8018C
:105150006083718382839383F8016191719181915E
:1051600091918F010E941524F2E0DF1621F084EF67
:1051700094E00E946625D39484E0E80EF11CE3E0FD
:10518000DE12C0CF80EF94E00E94662580915F011F
:105190008E7F80935F0133FE0EC080915E0183306D
:1051A00029F484E080935E0110926C0180915F018C
:1051B000877F80935F0132FE7FC0E0911706F091F8
:1051C0001806309709F471C0C584D684E784F08846
:1051D00080912A0690912B06A0912C06B0912D0665
:1051E000C81AD90AEA0AFB0A00911506FBE30F9FC9
:1051F0008001112401511E4FC701B6010E94CF3119
:10520000F801258D368D478D50A10E9424344B0125
:105210005C01F80165857685878590890E94CF318C
:105220009B01AC01C501B4010E942531F801658FD5
:10523000768F878F90A3C586D686E786F08A158AF3
:10524000168A178A108E118E128E138E148E12A249
:1052500081E081A30E9442260E94FF250E947525BD
:1052600010923606109237061092380610923906C0
:1052700060E070E0CB010E94C31B80E091E7A2E0F8
:10528000B0E08093320690933306A0933406B09337
:10529000350610922A0610922B0610922C061092B8
:1052A0002D0682E080935E0102C010925E01809123
:1052B0005F018B7F80935F0131FE0EC00E94711FE2
:1052C00080914A0181FF03C081E080936C0180914D
:1052D0005F018D7F80935F0168960FB6F894DEBF03
:1052E0000FBECDBFDF91CF911F910F91FF90EF9037
:1052F000DF90CF90BF90AF909F908F907F906F90F6
:105300005F904F903F900895CF93CBE39091160616
:1053100080911506981749F080911506C89FC00125
:10532000112481519E4F892B21F480915E0183309D
:1053300031F40E94992780915D01882339F3CF9140
:10534000089580915F0184FD13C080915F018061A9
:1053500080935F012C98419880915E018350833047
:1053600038F480915F01806280935F010C94371C58
:1053700008951F920F920FB60F9211242F933F930F
:105380004F935F936F937F938F939F93AF93BF934D
:10539000EF93FF93309912C0309903C00E94A12966
:1053A0000DC0309904C080915F01886005C03099BC
:1053B00005C080915F01826080935F01FF91EF9152
:1053C000BF91AF919F918F917F916F915F914F911D
:1053D0003F912F910F900FBE0F901F9018954F92F5
:1053E0005F926F927F928F929F92AF92BF92CF9275
:1053F000DF92EF92FF920F931F93CF93DF93CDB77E
:10540000DEB765970FB6F894DEBF0FBECDBF8091B3
:10541000DC06843209F068C481E0898B8091DD0666
:10542000833409F488C14CF4833211F18432A1F041
:105430008111CFC281E695E07BC1883409F4C0C1F7
:1054400024F4873409F4B1C0C4C28E3409F488C28C
:10545000883509F49BC1BDC282E0898B8091DE064C
:10546000882311F013E049C40E941C2110E045C4B8
:1054700082E0898B8091DE068111F4CF00E0BE01CD
:105480006F5F7F4F802F0E942B20182F811104C047
:105490008AE00E94E12031C481EC96E00E946625FA
:1054A000802F90E0FC013197E730F10520F4EB59B3
:1054B000FF4F0C9463358DEB96E002C089EB96E0CC
:1054C0000E946625CE0101967C0110E025C085EB87
:1054D00096E0F6CF81EB96E0F3CF8DEA96E0F0CF41
:1054E00089EA96E0EDCF85EA96E0EACF81EA96E098
:1054F000E7CFF70160817181828193810E94152439
:105500001230D1F08FE996E00E9466251F5FF4E02B
:10551000EF0EF11C133099F080914A0180FFE9CF22
:105520002BE832E441E25DE3D7016D917D918D91ED
:105530009C910E942434E2CF8BE996E0E5CF0F5F87
:10554000083009F09CCF85E996E00E94662547EA7D
:10555000E42E46E0F42E10E080914A0180FF0EC058
:105560002BE832E441E25DE3D70199966D917D919C
:105570008D919C919C970E94243405C0F70161A5F0
:1055800072A583A594A50E941524123019F083E911
:1055900096E002C08FE896E00E9466251F5FF4E067
:1055A000EF0EF11C1330C1F661CF82E0898B809140
:1055B000DE06811157CF8091A806823091F038F431
:1055C000882361F08130A1F48BE297E00FC0833033
:1055D00059F0843069F48EE197E008C08FE297E0DB
:1055E00005C087E297E002C083E297E00E9466254B
:1055F0008BE197E00E9466256091C30670E06A5CCB
:105600007F4F072E000C880B990B0E94BF248091BE
:10561000C00681110AC08091C106813019F486E16B
:1056200097E005C081E197E002C08CE097E00E941E
:1056300066258091AA06882319F087E097E002C0CA
:1056400082E097E00E9466258091AB06882319F0DE
:105650008DEF96E002C088EF96E00E94662580916B
:10566000A906882319F083EF96E002C08EEE96E03B
:105670000E9466258091AC06813049F028F0823086
:1056800051F482EE96E005C08AEE96E002C086EE06
:1056900096E00E9466258091AD06882351F0813006
:1056A00029F08F3F51F48AED96E005C08EED96E02B
:1056B00002C086ED96E00E9466258091AE068823A2
:1056C00029F0813039F48EEC96E002C082ED96E04C
:1056D0000E9466258BEC96E00E9466256091BF06CD
:1056E00070E080E090E00E94BF2488EC96E00E9489
:1056F00066258091AA06882379F02BE832E441E2FE
:105700005DE36091AF067091B0068091B106909113
:10571000B2060E94243408C06091AF067091B006B2
:105720008091B1069091B2060E94152484EC96E017
:105730000E9466259BCE82E0898B8091DE068111D6
:1057400091CE10915E01173069F40E94A12980E882
:1057500097E00E94662587E397E00E94662583E331
:1057600097E0E6CF112311F01BE0C7C287E08093DA
:105770005E0180E897E00E94662580E497E00E9441
:10578000662583E397E00E946625B7C282E0898B95
:105790008091DE06811166CE80915E01863009F02F
:1057A00065CE80E897E00E94662588E497E00E9435
:1057B000662583E397E00E94662510925E0156CE2F
:1057C00080914A0184FF88C280915E01882311F094
:1057D000863051F685E080935E0180916B008D7775
:1057E00080936B000E94551F009150011091510150
:1057F000209152013091530140E061E084E00E9429
:1058000018080091500110915101209152013091DE
:10581000530140E061E083E00E9418088091540148
:10582000909155010E948E2732E0F32EFA94009158
:105830004C0110914D0120914E0130914F0141E0FA
:1058400060E087E00E941808809154019091550112
:105850000E948E2721E0F21619F0FF20A9F0E6CF72
:1058600000914C0110914D0120914E0130914F015A
:1058700040E061E087E00E94180880915401909117
:1058800055010E948E27D2CF0E94371C0E94992773
:1058900080915D018111EACD8CE0E0E6F1E0DF016D
:1058A0001D928A95E9F70E94EC2610925E01809184
:1058B0004B0185FD02C01FEF01C011E087FD02C052
:1058C0006FEF01C061E08091560190915701A09166
:1058D0005801B09159018A8B9B8BAC8BBD8B062EE6
:1058E000000C770B880B990B0E94CF312A893B89DA
:1058F0004C895D890E9424342B013C01A090500109
:10590000B0905101C0905201D0905301612F110FFE
:10591000770B880B990B0E94CF312A893B894C89E0
:105920005D890E942434812C83017201A3019201BC
:105930000E94DE030E94711F0E9484290E94EC26AF
:1059400080914A0183FF05C080916B00826880933B
:105950006B0010915D01111189CD0E94E923CDC129
:1059600082E0898B8091DE06811135C0C12CD12C5B
:1059700076018C2D0E94021B811104C08AE00E94D6
:10598000E1201AC08CE897E00E946625C701B601A5
:105990000E94BF248AE897E00E9466250CED16E07D
:1059A000D8018D918D01882319F00E94C520F8CF70
:1059B00087E897E00E946625BFEFCB1ADB0AEB0A67
:1059C000FB0AE2E0CE16D104E104F10409F44ECD65
:1059D000D0CF10E001C011E0BE01635F7F4FCE0168
:1059E00041960E94CC2E892B11F411E086C1E989E1
:1059F00081E08E0F898BF0E0E452F94F90819D3366
:105A000009F030CD112389F1482F50E0282F30E0E4
:105A1000D901A452B94F9C91241B350BF901E452D2
:105A2000F94F90838F5F9C919111F0CF898B80917A
:105A30005E01863009F460C10E94980F182F811111
:105A40005CC16D857E858F8598890E9407350E948F
:105A50009E31F3E36F9FC001112442E350E06CEDEF
:105A600076E09D5F0E945C0F48C1BE016F5F7F4F73
:105A7000CE0141960E94CC2E892B09F4B6CFE9893C
:105A8000F0E0E452F94F80818111ECCCC980DA80DA
:105A9000EB80FC806D857E858F8598890E9497318B
:105AA0004B015C01CB01770FAA0BBB0B8731910532
:105AB00008F014C1FC01E459FF4F0C94633520E059
:105AC00030E0A901C701B6010E941B3118160CF085
:105AD00007C1C401880F991F880F991FFC01E95D58
