:100000000C94FF030C9411040C9411040C94780AC2
:100010000C94FB290C9411040C9411040C941104FD
:100020000C9411040C94621C0C9411040C94911CFB
:100030000C9411040C9411040C9411040C941104EC
:100040000C94BB1B0C9411040C948E200C94DD209A
:100050000C9411040C9411040C9411040C941104CC
:100060000C9411040C941104BF0CC40CCE0C740D30
:100070008E0EBA0E010F970C970C970C970C970CDD
:10008000970C970C970C970C970C970C970C970C58
:10009000970C970C970C970C970C970C970C970C48
:1000A000970C970C970C970C970CF50C970C500D20
:1000B000610D020D0F0D1C0DEA0C970C970C970C9F
:1000C000970C970C970C970C970C4F0E780E3A0ED6
:1000D0003F0E490EBA0DDC10BD10D01121112111B7
:1000E00021114411BD10BD10D0114E11D01153116A
:1000F0006F117D11D011D011D0119411A811BC1124
:1001000027128112EB129713EB129713A213E51328
:10011000342137213A213D214021432146214921E3
:100120004C214F215221552159286F285C285F28E6
:100130006228652868286B28A02AA92AAC2AAF2A39
:10014000B22AB52AB82AA12DA12DA12DB82DCB2DCB
:10015000D42DDD2DE62DEF2D062E112E1A2E232E59
:100160002C2E3D2E4C2E5B2E6E2E7D2E862E8F2E0F
:10017000982EA32E084AD73B3BCE016E84BCBFFD10
:10018000C12F3D6C74319ABD56833DDA3D00C77F67
:1001900011BED9E4BB4C3E916BAAAABE0000008000
:1001A0003F05A84CCDB2D44EB93836A9020C50B98F
:1001B000918688083CA6AAAA2ABE000000803F00BB
:1001C0000D0A4772626C20302E3863205B2724278B
:1001D00020666F722068656C705D0D0A004E0059D4
:1001E000000D0A006F6B0D0A002028686F6D696EA4
:1001F000672070756C6C2D6F66662C206D6D290DF7
:100200000A002028686F6D696E67206465626F75EB
:100210006E63652C206D736563290D0A2432323DAF
:10022000002028686F6D696E67207365656B2C20F0
:100230006D6D2F6D696E290D0A2432313D00202825
:10024000686F6D696E6720666565642C206D6D2F23
:100250006D696E290D0A2432303D00290D0A2431C2
:10026000393D002028686F6D696E672064697220CF
:10027000696E76657274206D61736B2C20696E7483
:100280003A002028686F6D696E67206379636C653A
:100290002C20626F6F6C290D0A2431383D00202814
:1002A00068617264206C696D6974732C20626F6F71
:1002B0006C290D0A2431373D002028696E7665725D
:1002C00074207374657020656E61626C652C2062A9
:1002D0006F6F6C290D0A2431363D0020286175743A
:1002E0006F2073746172742C20626F6F6C290D0A19
:1002F0002431353D0020287265706F727420696E5C
:10030000636865732C20626F6F6C290D0A24313489
:100310003D0020286E2D646563696D616C732C202F
:10032000696E74290D0A2431333D0020286E2D6139
:10033000726320636F7272656374696F6E2C2069DB
:100340006E74290D0A2431323D0020286172632C1D
:10035000206D6D2F7365676D656E74290D0A2431EC
:10036000313D0020286A756E6374696F6E20646584
:1003700076696174696F6E2C206D6D290D0A2431C8
:10038000303D002028616363656C65726174696F3C
:100390006E2C206D6D2F7365635E32290D0A243932
:1003A0003D002028737465702069646C6520646565
:1003B0006C61792C206D736563290D0A24383D002A
:1003C000290D0A24373D0020287374657020706F52
:1003D000727420696E76657274206D61736B2C2067
:1003E000696E743A00202864656661756C742073C8
:1003F00065656B2C206D6D2F6D696E290D0A243695
:100400003D00202864656661756C742066656564CE
:100410002C206D6D2F6D696E290D0A24353D00204D
:1004200028737465702070756C73652C2075736506
:1004300063290D0A24343D0020287A2C207374652A
:10044000702F6D6D290D0A24333D002028792C2052
:10045000737465702F6D6D290D0A24323D002028BC
:10046000782C20737465702F6D6D290D0A24313D31
:100470000024303D000D0A00416C61726D206C6FEC
:10048000636B0042757379206F72207175657565B5
:100490006400454550524F4D20726561642066618D
:1004A000696C2E205573696E672064656661756C92
:1004B00074730056616C7565203C2033207573653C
:1004C000630056616C7565203C20302E300053650A
:1004D0007474696E672064697361626C6564004955
:1004E0006E76616C69642073746174656D656E7499
:1004F000004D6F64616C2067726F75702076696F54
:100500006C6174696F6E00496E76616C696420720B
:10051000616469757300556E737570706F72746580
:10052000642073746174656D656E740045787065E0
:100530006374656420636F6D6D616E64206C6574B7
:1005400074657200426164206E756D62657220662A
:100550006F726D6174006572726F723A20003E0DA9
:100560000A002C0057506F733A002C002C4D506F2E
:10057000733A003C436865636B003C416C61726D8B
:10058000003C486F6D65003C486F6C64003C5275E0
:100590006E003C5175657565003C49646C65002EC4
:1005A000204D506F733F0D0A0041626F72742064DA
:1005B0007572696E67206379636C65004861726467
:1005C000206C696D697400414C41524D3A20002401
:1005D00024202876696577204772626C20736574E1
:1005E00074696E6773290D0A24232028766965775C
:1005F000202320706172616D6574657273290D0A24
:1006000024472028766965772070617273657220AF
:100610007374617465290D0A244E20287669657704
:10062000207374617274757020626C6F636B7329D0
:100630000D0A24783D76616C7565202873617665B6
:10064000204772626C2073657474696E67290D0AA5
:10065000244E783D6C696E65202873617665207341
:1006600074617274757020626C6F636B290D0A245B
:10067000432028636865636B2067636F6465206D42
:100680006F6465290D0A245820286B696C6C206101
:100690006C61726D206C6F636B290D0A24482028F1
:1006A00072756E20686F6D696E67206379636C6523
:1006B000290D0A7E20286379636C6520737461724A
:1006C00074290D0A2120286665656420686F6C64B2
:1006D000290D0A3F202863757272656E7420737449
:1006E00061747573290D0A6374726C2D78202872F9
:1006F00065736574204772626C290D0A005D0D0AEE
:10070000002C005B4739323A005D0D0A002C0033A3
:10071000303A0032383A0035393A0035383A003547
:10072000373A0035363A0035353A0035343A005B11
:1007300047005D0D0A00204600205400204D38007F
:10074000204D3900204D3500204D3400204D330020
:10075000204D3200204D3100204D300020473934EB
:100760000020473933002047393100204739300015
:1007700020473231002047323000204731390020F5
:100780004731380020473137002047005B47383079
:10079000005B4733005B4732005B4731005B47300B
:1007A000005D0D0A0044697361626C656400456E0A
:1007B00061626C65640043617574696F6E3A2055BF
:1007C0006E6C6F636B656400272448277C27245870
:1007D0002720746F20756E6C6F636B0052657365B4
:1007E0007420746F20636F6E74696E7565005B00B2
:1007F0006F6B0D0A000D0A003D00244E000011240D
:100800001FBECFEFD8E0DEBFCDBF26E0A0E0B1E055
:1008100001C01D92A03FB207E1F70E94EB2F0C949C
:10082000D9350C9400000C9451302F923F924F9286
:100830005F926F927F928F929F92AF92BF92CF9270
:10084000DF92EF92FF920F931F93CF93DF93CDB779
:10085000DEB7E1970FB6F894DEBF0FBECDBF2B0118
:100860003C0129833A834B835C83ED8AFE8A0F8B9C
:10087000188FA98ABA8ACB8ADC8A89A280915E0104
:10088000873009F4F3C30E94DB2780915D01811159
:10089000EDC3809115062091240129AB821799F3AD
:1008A00080911606282E312C409127015091280165
:1008B0006091290170912A014D835E836F8378874F
:1008C0009A01AB01C301B2010E9466340E94333425
:1008D0006DA37EA38FA398A760912B0170912C012B
:1008E00080912D0190912E0169877A878B879C8753
:1008F0009B01AC0169817A818B819C810E94663465
:100900000E94333469A77AA78BA79CA780912F01F7
:1009100090913001A0913101B09132018D879E8775
:10092000AF87B88B9C01AD016D897E898F89988DC9
:100930000E9466340E9433346DA77EA78FA798ABC0
:100940008BE3829DF001839DF00D1124E151FE4F58
:10095000108280918B0690918C06A0918D06B091AB
:100960008E062DA13EA14FA158A5281739074A0789
:100970005B0714F420E2208300918F06109190060B
:10098000209191063091920649A55AA56BA57CA5A8
:1009900040175107620773075CF44BE3429DF00177
:1009A000439DF00D1124E151FE4F4081406840838A
:1009B000C0909306D0909406E0909506F09096062D
:1009C0004DA55EA56FA578A94C155D056E057F0543
:1009D0005CF44BE3429DF001439DF00D1124E15185
:1009E000FE4F4081406840834DA15EA16FA178A574
:1009F000481B590B6A0B7B0B49835A836B837C839F
:100A000077FF0BC088279927DC01841B950BA60B69
:100A1000B70B89839A83AB83BC83EBE3E29DC00170
:100A2000E39D900D1124FC01E151FE4F89819A81D3
:100A3000AB81BC8181839283A383B48389A49AA46C
:100A4000ABA4BCA4801A910AA20AB30A950184013E
:100A5000B7FE07C0002711279801081919092A09AC
:100A60003B09EBE3E29DC001E39D900D1124FC01E5
:100A7000E151FE4F05831683278330878DA59EA500
:100A8000AFA5B8A98C199D09AE09BF096C017D01FC
:100A90002C013D01B7FF07C0442455243201481AF8
:100AA000590A6A0A7B0AEBE3E29DC001E39D900DBF
:100AB0001124FC01E151FE4F418652866386748603
:100AC00089819A81AB81BC8180179107A207B30706
:100AD00010F4D901C80189839A83AB83BC83841540
:100AE0009505A605B70520F449825A826B827C825F
:100AF0008BE3829D8001839D100D112401511E4FB7
:100B000089819A81AB81BC81F80185879687A78707
:100B1000B08B892B8A2B8B2B09F423C2CB01BA0112
:100B20000E9411322D813E814F8158850E9467318C
:100B3000698F7A8F8B8F9C8FC501B4010E9411320F
:100B400029853A854B855C850E9467316D8F7E8F44
:100B50008F8F98A3C701B6010E9411322D853E8563
:100B60004F8558890E9467314B015C01298D3A8D70
:100B70004B8D5C8DCA01B9010E9466346B017C010A
:100B80002D8D3E8D4F8D58A1CA01B9010E9466344A
:100B90009B01AC01C701B6010E9468306B017C016A
:100BA000A5019401C501B4010E9466349B01AC010A
:100BB000C701B6010E9468300E9405356D8B7E8B9F
:100BC0008F8B988FD8015D966D937D938D939C93B9
:100BD00090979B01AC0160E070E080E89FE30E9489
:100BE00067312B013C01B9A1B11109C09B01AC01D6
:100BF00069897A898B899C890E9466340AC029890F
:100C00003A894B895C8960E070E080E89FE30E944C
:100C100067316B017C019B01AC016D897E898F89F5
:100C2000988D0E9466346D8379878D87998B8BE3CD
:100C3000829D8001839D100D112401511E4FCB0117
:100C4000AD85B989F801818B928BA38BB48B6981B7
:100C50007A818B819C810E94113269A37AA38BA334
:100C60009CA39B01AC01C701B6010E9466340E949F
:100C700046310E94E031D801D7966D937D938D93D4
:100C80009C93DA97209142013091430140914401B5
:100C90005091450129833A834B835C8329A13AA172
:100CA0004BA15CA1C301B2010E94663429813A8143
:100CB0004B815C810E94663420E030E84BE355E4D0
:100CC0000E9467310E9446310E94D931D8019B961B
:100CD0006D937D938D939C939E97A3019201698D53
:100CE0007A8D8B8D9C8D0E946634698F7A8F8B8F65
:100CF0009C8FA30192016D8D7E8D8F8D98A10E9496
:100D000066346D8F7E8F8F8F98A3A3019201C501EA
:100D1000B4010E9466342B013C019091160680912B
:100D20001506981709F457C0E090A306F090A406A2
:100D30000091A5061091A60620E030E0A901B701B8
:100D4000C8010E947F3318160CF045C080919706A9
:100D500090919806A0919906B0919A06BC01CD0198
:100D60009058298D3A8D4B8D5C8D0E9466344B01D5
:100D70005C0120919B0630919C0640919D0650910C
:100D80009E066D8D7E8D8F8D98A10E9466349B018D
:100D9000AC01C501B4010E9467304B015C01209198
:100DA0009F063091A0064091A1065091A206C30172
:100DB000B2010E9466349B01AC01C501B4010E94DE
:100DC00067304B015C0123E333E343E75FE30E94B9
:100DD0005D3187FDECC0E12CF12C00E010E08BE3ED
:100DE000829DF001839DF00D1124E151FE4FC7015A
:100DF000D801818F928FA38FB48F69817A818B8183
:100E00009C8190589B01AC010E9468302D893E89DD
:100E10004F89588D0E9466349B01AC0160E070E000
:100E2000CB010E9467300E9405355B016C019B017C
:100E3000AC01B701C8010E945D3187FD04C0750196
:100E40003C2D2D2D02C0302F212F8BE3829D800160
:100E5000839D100D112401511E4FC701A32FB22FE6
:100E6000F801858B968BA78BB08F9501A6016D81BC
:100E700079858D8599890E945D3118162CF081E065
:100E8000D80192968C9302C0F80112A28BE3829D46
:100E9000F001839DF00D1124E151FE4F81E081A30B
:100EA000298D3A8D4B8D5C8D209397063093980653
:100EB0004093990650939A064D8D5E8D6F8D78A163
:100EC00040939B0650939C0660939D0670939E06EC
:100ED00040929F065092A0066092A1067092A206D0
:100EE0008D819985AD85B9898093A3069093A406D9
:100EF000A093A506B093A60659A950931606809113
:100F000016068F5F823109F480E0809324016DA181
:100F10007EA18FA198A560938B0670938C06809319
:100F20008D0690938E0689A59AA5ABA5BCA5809346
:100F30008F0690939006A0939106B09392062DA5EC
:100F40003EA54FA558A9209393063093940640934D
:100F50009506509396060E9484260E9441260E9480
:100F6000B72580915E01811103C082E080935E010C
:100F700080916C01882309F479C0E1960FB6F8944A
:100F8000DEBF0FBECDBFDF91CF911F910F91FF90BC
:100F9000EF90DF90CF90BF90AF909F908F907F9019
:100FA0006F905F904F903F902F900C94B31F9701DC
:100FB000A8016D8179858D8599890E947F331816E6
:100FC00024F0ED80F9840D85198923E333E343E7A9
:100FD0005FEBC501B4010E947F3318160CF0FFCE01
:100FE000A501940160E070E080E89FE30E94673013
:100FF00020E030E040E05FE30E9466340E94053567
:101000004B015C012091460130914701409148011C
:101010005091490169817A818B819C810E9466345B
:10102000A50194010E94663469A37AA38BA39CA3B3
:10103000A501940160E070E080E89FE30E946730C2
:101040009B01AC0169A17AA18BA19CA10E9467318F
:101050000E9405355B016C019701A8010E947F3356
:1010600018160CF4BCCE75018601B9CEE1960FB608
:10107000F894DEBF0FBECDBFDF91CF911F910F91CE
:10108000FF90EF90DF90CF90BF90AF909F908F90A8
:101090007F906F905F904F903F902F9008952F9288
:1010A0003F924F925F926F927F928F929F92AF92F8
:1010B000BF92CF92DF92EF92FF920F931F93CF9345
:1010C000DF93CDB7DEB7AC970FB6F894DEBF0FBE97
:1010D000CDBF382E6D87242E098B1A8B2B8B3C8B22
:1010E000FE0131968CE0DF011D928A95E9F730FE12
:1010F00010C0609127017091280180912901909181
:101100002A010E94333469837A838B839C8311E0A4
:1011100001C010E031FE0FC01F5F60912B01709184
:101120002C0180912D0190912E010E9433346D830A
:101130007E838F83988732FE0FC01F5F60912F01DF
:101140007091300180913101909132010E943334CD
:1011500069877A878B879C87F985EA853B852C850B
:101160004D815E816F81788589819A81AB81BC8157
:1011700084179507A607B70710F4DB01CA01CF2E25
:10118000DE2EE32EF22EC816D906EA06FB0610F470
:101190006C017D01612F70E080E090E00E940F32D1
:1011A0000E9405352B013C01C701B6010E940F3298
:1011B000A30192010E9467314B015C012091420121
:1011C0003091430140914401509145010E946634A1
:1011D00020E030E84BE355E40E9467310E9446313D
:1011E0000E94E0316DA37EA38FA398A729893A8935
:1011F0004B895C89C301B2010E946634A501940148
:101200000E9466349B01AC0160EC71EE84E69CE4C4
:101210000E9467310E9433342B013C01683FB4E2E5
:101220007B07B1E08B07910518F44B015C0107C007
:1012300038EF832E34E2932EAA24A394B12C10917C
:101240004B01107A80913D0118272D85211102C094
:1012500080EA1827D701C601B695A7959795879577
:1012600022273327A901281B390B4A0B5B0B2D873B
:101270003E874F87588B80913401A5019401281B2C
:1012800031094109510929A33AA34BA35CA38D85D8
:101290009E85AF85B889898F9A8FAB8FBC8F8D8BD8
:1012A0009E8BAF8BB88F20E137E240E050E0298B76
:1012B0003A8B4B8B5C8B1D8E1E8E1F8E18A200E40A
:1012C000E3B1222011F032E8E32730FE2FC049813C
:1012D0005A816B817C818D859E85AF85B889840F0D
:1012E000951FA61FB71F89A79AA7ABA7BCA78D8775
:1012F0009E87AF87B88B181619061A061B06B4F41A
:10130000E1FF03C0612F602704C0932D9E7F392E1B
:10131000612F29A53AA54BA55CA52C193D094E09BD
:101320005F092D873E874F87588B01C0612F31FEA3
:101330002CC08D819E81AF81B8852D893E894F89D2
:10134000588D820F931FA41FB51F89A79AA7ABA71B
:10135000BCA78D8B9E8BAF8BB88F181619061A06FB
:101360001B069CF4E7FF02C0605803C0332D3D7F8D
:10137000332E89A59AA5ABA5BCA58C199D09AE09EC
:10138000BF098D8B9E8BAF8BB88F32FE2CC0298509
:101390003A854B855C85898D9A8DAB8DBC8D280FE8
:1013A000391F4A1F5B1F29A73AA74BA75CA7298FA4
:1013B0003A8F4B8F5C8F1216130614061506B4F481
:1013C000E7FF02C0605803C0932D9B7F392E29A5EB
:1013D0003AA54BA55CA52C193D094E095F09298F3B
:1013E0003A8F4B8F5C8F332009F469C090915F0175
:1013F00094FD65C09BB19F73862F807C892B8BB930
:101400006091340170E080E090E00E9492271BB967
:1014100069A17AA18BA19CA10E949227481459042A
:101420006A047B0408F04CCF89899A89AB89BC890E
:10143000880D991DAA1DBB1D898B9A8BAB8BBC8B0C
:1014400081322EE49207A105B10508F439CF80520C
:101450009E44A109B109898B9A8BAB8BBC8B8D8D76
:101460009E8DAF8DB8A12DA13EA14FA158A5820F91
:10147000931FA41FB51F8D8F9E8FAF8FB8A360E001
:1014800077E883E993E02D8D3E8D4F8D58A10E9422
:10149000833553014201421653066406750610F463
:1014A00049015A0180913401A5019401281B310999
:1014B0004109510929A33AA34BA35CA301CFAC96E0
:1014C0000FB6F894DEBF0FBECDBFDF91CF911F9155
:1014D0000F91FF90EF90DF90CF90BF90AF909F90D3
:1014E0008F907F906F905F904F903F902F900895D6
:1014F0001F920F920FB60F9211242F933F934F9389
:101500005F936F937F938F939F93AF93BF93EF936B
:10151000FF9380915E01863059F080915F0185FDD7
:1015200007C00E94E32980915F01806480935F017E
:10153000FF91EF91BF91AF919F918F917F916F91AB
:101540005F914F913F912F910F900FBE0F901F9081
:10155000189584B18D7784B985B1826885B98091F9
:101560004A0183FF09C080916B00826880936B0001
:1015700080916800816008C080916B008D778093B6
:101580006B00809168008E7F8093680008959F9221
:10159000AF92BF92CF92DF92EF92FF920F931F9381
:1015A000CF93DF935B018A017C01E40EF51EEC0111
:1015B000912C6B01C81AD90AEC16FD06A9F0C601D8
:1015C0008C0F9D1F0E945130292D30E021153105CF
:1015D00031F4220F232F221F330B217001C021E091
:1015E000982E920E8993E8CFC501800F911F0E941B
:1015F000513021E030E0981611F020E030E0C901D0
:10160000DF91CF911F910F91FF90EF90DF90CF90DE
:10161000BF90AF909F900895CF93DF93CDB7DEB783
:101620002C970FB6F894DEBF0FBECDBF5A9A5B9AC7
:101630005C98259A3A9A3B9A249A84E690E00E9414
:101640001304082E000C990B90931F0180931E0128
:1016500085E690E00E941304082E000C990B9093ED
:1016600021018093200186E690E00E941304082E59
:10167000000C990B90932301809322018091C0006C
:101680008D7F8093C0001092C50087E68093C400D0
:101690008091C10080618093C1008091C100886009
:1016A0008093C1008091C10080688093C10089E46B
:1016B0000E94072184E40E9407218DE30E940721F4
:1016C00080911E010E940721809120010E94072124
:1016D000809122010E94072180E090E00E94130483
:1016E000853061F446E350E061E070E087E291E02C
:1016F0000E94C70A892B09F418C411C0853008F06C
:1017000014C443E250E061E070E087E291E00E949F
:10171000C70A892B09F409C480E00E94CA1F10E09F
:10172000BE016F5F7F4F812F0E946D20811103C02A
:101730008AE00E9423211F5F183091F78AB1806EE2
:101740008AB98BB18F7190913D01892B8BB9209A09
:10175000809181008F7E80938100809181008860DC
:1017600080938100809180008D7F809380008091A4
:1017700080008E7F80938000809180008F738093A3
:101780008000809180008F7C809380001092B00058
:101790001092B100809170008160809370000E946F
:1017A000971F0E94791C789480E1EDE5F1E0DF015C
:1017B0001D928A95E9F781E080935D0180935E0137
:1017C00046E3242E312C55E3452E512C64E3662E3E
:1017D000712C80915D01882309F499C08091EE01FC
:1017E0008093ED0180911606809315068091160670
:1017F0008F5F823109F480E0809324018CE1EBE873
:10180000F6E0DF011D928A95E9F785E3E7EAF6E065
:10181000DF011D928A95E9F780913501909136019B
:10182000A0913701B09138018093AF069093B00634
:10183000A093B106B093B20681E08093C10692E016
:101840009093C2068093AB0664EC76E080E00E9441
:101850006D20811103C08AE00E94232180EC91E079
:101860000E94A8253898409A80916C0081608093EE
:101870006C0080916800826080936800109225015E
:10188000249A259A2C9810922601399A41980E9400
:10189000A90A84E2EAE1F6E0DF011D928A95E9F700
:1018A00060E273E080E090E00E94051C1092180650
:1018B00010921706109219060E942E2710925D01B1
:1018C00010925F0180914A0181FF03C091E09093E3
:1018D0006C0190915E01913029F484FF03C086E091
:1018E00080935E0180915E01863069F48EEE97E010
:1018F0000E94A82588EC97E00E94A82581EA97E03D
:101900000E94A82504C010925E010E942B240E9410
:10191000DB2783E3882E912C02E310E091E3E92E8C
:10192000F12C24E0C22ED12C33E0A32EB12C9091C7
:10193000EE018091ED01981303C02D984298EBC2FF
:101940002D9A429A9091ED01E92FF0E0E359FE4F74
:1019500080819F5F903819F09093ED0102C0109242
:10196000ED018F3F09F4D7C2E0911C01F0911D01F8
:10197000E733F105E0F6EC5CFF4F0C94A5358934B4
:10198000B1F681E090E005C0843409F0EEC182E058
:1019900090E090931D0180931C01C9CF8A3340F4DD
:1019A000803360F48D3009F0E0C188E290E0F1CF3F
:1019B0008D3309F0DAC181E290E0EBCF90E0209125
:1019C0001E0130911F018217930709F0CEC183E2F7
:1019D00090E0DFCF80911E010E94072180912001BD
:1019E0000E9407218091220158C090ED980F9A30F3
:1019F00008F0BBC190E0909317018093160185E237
:101A000090E0C7CF90ED980F9A3008F0AEC190E00B
:101A1000909319018093180186E290E0BACF90ED7F
:101A2000980F9A3008F0A1C190E090931B01809329
:101A30001A0187E290E0ADCF8D3019F08A3009F0BD
:101A400094C1609116018091170160931E018093EB
:101A50001F018091180190911901909321018093A9
:101A6000200180911A0190911B0190932301809392
:101A7000220184E690E00E9459306091180185E6C9
:101A800090E00E94593060911A0186E690E00E9431
:101A900059308FE60E9407218BE60E94072165C11D
:101AA00090ED980F9A3008F060C190E020912001ED
:101AB000309121018217930709F057C184E290E029
:101AC00068CF90ED980F9A3008F04FC190E02091C8
:101AD0002201309123018217930709F046C1B09289
:101AE0001D01A0921C0123CF8A3559F180F489345D
:101AF00069F128F48A33D9F0823469F136C183352B
:101B0000A1F1873569F1803509F02FC115C0803703
:101B100099F028F48236F9F08936C1F026C187376A
:101B2000F9F08A3771F0833709F01FC11EC0D092D7
:101B30001D01C0921C0104C1F0921D01E0921C0124
:101B4000F6CE30921D0120921C01F1CE10931D01A2
:101B500000931C01ECCE90921D0180921C01E7CEF7
:101B600070921D0160921C01E2CE50921D014092C4
:101B70001C01DDCE8A3009F0BDC080915F01846018
:101B800080935F010E94791C28982D9A429A5D9853
:101B90005E982198299A19991FC05D9A80E090E07B
:101BA0002CE231E05E9A21503109E1F72CE231E07C
:101BB0005E9821503109E1F78130910519F42C9A92
:101BC000439A02C02C9843980196843FB1E09B074A
:101BD00039F784EF91E002C080E090E05D985E9874
:101BE000199B1CC02CE231E05E9A21503109E1F7CB
:101BF0002CE231E05E9821503109E1F79C012F5F22
:101C00003F4F68EE73E00E946F35019721F42C9AE4
:101C1000439AC901E5CF2C984398FBCF2C98439861
:101C2000289A2D98429810926001109261011092AA
:101C30006201109263011092B3061092B4061092E2
:101C4000B5061092B6061092C4061092C506109200
:101C5000C6061092C7061092D0061092D1061092B6
:101C6000D2061092D3060E942E2784EE91E00E94A5
:101C7000A8257BC08A30F1F50E94791C76C08A3095
:101C8000C9F50E94971F80915F018B7F80935F0150
:101C90006CC08A3079F581E080935D0166C08A303E
:101CA00049F56091600170916101809162019091AC
:101CB00063010E9411322091270130912801409147
:101CC000290150912A010E94673120914A0120FF89
:101CD00006C02BE832E441E25DE30E9466340E94D4
:101CE000572410921D0110921C0181EE91E013C047
:101CF0008A3021F08D3009F41ACE37C010921D01C0
:101D000010921C0180915E01811103C08FED91E062
:101D100002C08DED91E00E94A82509CE883541F0E2
:101D200018F48634B9F021C08636A1F08837E9F47A
:101D300080911501882339F010921D0110921C0129
:101D4000109215013FC0E5E0F0E0F0931D01E09333
:101D50001C01DEC0809114018111EECF86E090E07D
:101D600090931D0180931C012DC010921D011092B3
:101D70001C01DDCD8E3279F030F48A30D9F08D300F
:101D800009F4D5CDBFC0803308F4BCC08A3318F045
:101D9000863459F0B7C0E091150191E09E0F909301
:101DA0001501F0E0E65FFE4F46C0809114018823E4
:101DB000A9F2A8C080911501811107C010921D01E0
:101DC00010921C0110921401B2CD97E49093DC069E
:101DD00091E39093DD0698E59093DE06AFEDB6E0D3
:101DE000EAE0F1E090E09F012A50314028173907DE
:101DF0001CF421912D93F7CFFC01E452F94F13828B
:101E000077C08A3350F4803368F48D3009F48FCD75
:101E10008E3241F08A30B1F075C0883571F0883764
:101E200061F070C0E091140191E09E0F9093140155
:101E3000F0E0E050FF4F80837ACD80911501811151
:101E40007BCF66C080911401882309F4B7CFE0915D
:101E50001501EE23A9F197E49093DC0691E39093AA
:101E6000DD0698E59093DE062FED36E0AAE0B1E0BE
:101E70006E2F70E0AD014A505140461757072CF4C1
:101E80009D91F90191939F01F5CF9B012452394F08
:101E900096E4D90113969C93FB01E052F94FA0E020
:101EA000B1E090E0AD0140505140481759071CF493
:101EB0004D914193F7CFF901E80FF91F148218C033
:101EC00096E49093DC062DED36E0A0E0B1E0482FDB
:101ED00050E0CD0180509140841795072CF48D91EE
:101EE000F90181939F01F5CFFA01E452F94F118274
:101EF0000E94DB2780915D0181110DC00E94312A73
:101F00000E946D2210921D0110921C01109214016A
:101F1000109215010CCD80915E01811103C02C98A7
:101F2000439857CC2C9A439A54CC8AE00E942321A0
:101F300081E00E94CA1F0E945E21F1CB9F92AF9266
:101F4000BF92CF92DF92EF92FF920F931F93CF93A6
:101F5000DF935C01EB017A016B01C40ED51E8C018D
:101F6000912C692DCC15DD05A9F070E06115710586
:101F700031F4660F672F661F770B617001C061E057
:101F80008991962E980E682FC8010E9459300F5FD4
:101F90001F4FE7CFC5018E0D9F1DDF91CF911F9180
:101FA0000F91FF90EF90DF90CF90BF90AF909F90F8
:101FB0000C9459302F923F924F925F926F927F9282
:101FC0008F929F92AF92BF92CF92DF92EF92FF9249
:101FD0000F931F93CF93DF93CDB7DEB7CB55D109C6
:101FE0000FB6F894DEBF0FBECDBF1AA6FE017996DC
:101FF0008CE0DF01282F1D922A95E9F73C97DF013D
:102000001D928A95E9F71092A7061BA6912C212C08
:10201000312CCC24C394D12C15E0B12E01E082E008
:10202000F82E93E0E92E24E0A22EAE01465D5F4F2C
:10203000BE016B5D7F4FCE0189960E94C42F892B14
:1020400009F482C04DA05EA06FA078A4C301B201C4
:102050000E9449350E94D931CB0129A5273421F0AE
:102060002D3409F45BC0E1CF6E31710511F40C948D
:1020700060191CF564317105B4F46131710514F017
:102080000C946F1A6430710511F40C94601924F4E7
:1020900077FF38C00C944B196A30710511F40C9419
:1020A00060190C944B196631710594F16C3171050E
:1020B00011F00C944B190C9460196C357105ACF44B
:1020C0006A35710514F56C33710554F46633710586
:1020D00014F56533710511F40C9460190C944B19C7
:1020E0006035710579F00C944B196C35710511F45C
:1020F0000C9460196F35710514F00C944B1916E0AF
:102100000C94611912E00C94611914E00C9461199B
:1021100017E00C94611919E00C946119663071058F
:102120004CF4633071056CF477FF02C00C94F81A1C
:102130000C94BE1A6E31710511F40C94BE1A0C94F5
:10214000F81A18E00C94BF1A8091A70681110C941C
:102150002A1B1AA600E01CA61DA61EA61FA6412C1F
:10216000512C320118AE19AE40E84AAF5FEB5BAFBD
:1021700010E0F3E0AF2EA6E08A2EAE01465D5F4F81
:10218000BE016B5D7F4FCE0189960E94C42F892BC3
:1021900009F409C1E9A48E2D0E2C000C990BAA0B91
:1021A000BB0BFC01E654F109E531F10508F0F8C07C
:1021B000E559FF4F0C94A535BDA0CEA0EFA0F8A423
:1021C00020E030E0A9016B2D7C2DC7010E945D311C
:1021D000181614F08092A7069091A9068091AA067D
:1021E0009923A9F0811105C0B8AEC9AEEAAEFBAE25
:1021F000C4CF23E333E34BEC51E46B2D7C2DC701BB
:102200000E94663468AF79AF8AAF9BAFB6CF8823A0
:1022100051F023E333E34BEC51E46B2D7C2DC701EC
:102220000E94663403C06B2D7C2DC7016B017C01BD
:10223000C092AF06D092B006E092B106F092B2061C
:102240009CCF0E2C000CFF0889E4E81AF1086DA160
:102250007EA18FA198A52091AA06222331F023E325
:1022600033E34BEC51E40E946634EE0CFF1CEE0CA1
:10227000FF1CE1E0F0E0EC0FFD1FEE0DFF1D648799
:1022800075878687978779CF6DA17EA18FA198A545
:102290000E9449350E94E031062F6FCF4DA05EA00D
:1022A0006FA078A46ACF2DA13EA14FA158A52CA75D
:1022B0003DA74EA75FA78091AA06882309F45DCFAA
:1022C00023E333E34BEC51E46CA57DA58EA59FA5DC
:1022D0000E9466346CA77DA78EA79FA74ECF20E0F3
:1022E00030E0A9016DA17EA18FA198A50E945D316A
:1022F00087FF43CF8092A70640CFCDA0DEA0EFA0FE
:10230000F8A420E030E0A901C701B6010E945D31C8
:1023100087FD8092A706C701B6010E9449350E9439
:10232000E0316093BF0629CF6DA17EA18FA198A552
:102330002091AA06222331F023E333E34BEC51E44E
:102340000E946634698F7A8F8B8F9C8F116015CFB6
:102350006DA17EA18FA198A52091AA06222331F01C
:1023600023E333E34BEC51E40E9466346D8F7E8FA0
:102370008F8F98A3126001CF6DA17EA18FA198A528
:102380002091AA06222331F023E333E34BEC51E4FE
:102390000E94663469A37AA38BA39CA31460EDCE3C
:1023A000A092A706EACE8091A70681110C942A1B61
:1023B00080915E01873049F1F090AD062F2D0F2CF2
:1023C000000C330B8091250190E02817390769F044
:1023D0000E94C629FF2031F014F02D9801C02D9ADB
:1023E0002C9A01C02C98F0922501F090AE068091B5
:1023F0002601F81651F00E94C62931E0F31202C0FE
:10240000419A01C04198F092260131FE13C0BE01ED
:102410006F5F7F4F8091C3060E946D20882309F46F
:10242000DCC18CE0FE013196A4ECB6E001900D9287
:102430008A95E1F74BA5842F90E0FC013197E830B5
:10244000F10508F0CCC1E058FF4F0C94A53520E011
:1024500030E0A901C301B2010E945D3187FF04C0D1
:1024600086E08093A706BBC180915E01873009F4A6
:10247000B6C120E030E040EA51E4C301B2010E945D
:1024800066340E944C320E94E0316B017C010E9454
:10249000C62920E030E04AE754E4C301B2010E94BB
:1024A00066342B013C0182E38C9DB0018D9D700D43
:1024B000112480E090E00E940F329B01AC01C30127
:1024C000B2010E9467300E944C320E94E031CB0181
:1024D0000E94D027C114D10409F481C10E94DB27D6
:1024E00051E0C51AD10880915D01811178C18FEF4B
:1024F00090E7A2E081509040A040E1F700C00000CA
:10250000E9CFC301B2010E944935023011F0043114
:1025100051F40E94D9317B01B1E0EB1AF108E6E0F9
:10252000EE16F10410F083E005C0111106C0023070
:1025300021F486E08093A706F8C0043181F463EBB0
:1025400076E08E2D0E9464208091C30690E0E8160C
:10255000F90609F0EAC08CE0E3EBF6E039C0BE0111
:102560006F5F7F4F8E2D0E946D20882309F435C147
:10257000DE015996FE01319680E090E0212F30E097
:10258000A901082E02C0559547950A94E2F740FF2D
:1025900009C04D915D916D917C911397408351835A
:1025A000628373830196149634968330910541F7C4
:1025B000BE016F5F7F4F8E2D0E9464208091C30605
:1025C00090E0E816F90609F0B0C08CE0FE01319603
:1025D000A4ECB6E0A6C0112309F479C08090AB0644
:1025E0007E01F9E1EF0EF11C67EAC62E66E0D62EF9
:1025F000A12CB12C012F10E0C8010A2C02C0959526
:1026000087950A94E2F780FF33C08820F9F0D6015D
:1026100099962D913D914D915C919C975D966D9110
:102620007D918D919C9190970E9468309B01AC01A7
:10263000F70160817181828193810E946830D701A6
:102640006D937D938D939C9313971CC0F601248505
:10265000358546855785D7016D917D918D919C91EA
:102660000E946830F70160837183828393830AC07C
:10267000F60184859585A685B785F70180839183CA
:10268000A283B383FFEFAF1ABF0A24E0E20EF11C6E
:1026900034E0C30ED11C43E0A416B10409F0ACCF62
:1026A000A0903901B0903A01C0903B01D0903C011C
:1026B000E9A0FAA00BA11CA12D8D3E8D4F8D58A134
:1026C000698D7A8D8B8D9C8D812C0E9415045BA564
:1026D000553011F086E001C087E0BE016F5F7F4F8B
:1026E0000E946D20882309F478C0A0903901B09031
:1026F0003A01C0903B01D0903C01E984FA840B85FB
:102700001C852D813E814F81588569817A818B811D
:102710009C81812C0E9415048CE0FE013196A3EB74
:10272000B6E001900D928A95E1F710E058C08BA5B4
:10273000863011F086E001C087E063EB76E00E940E
:1027400064204DC0112309F4F4CE57EAE52E56E07B
:10275000F52E5E0199E1A90EB11CC12CD12C012FDF
:1027600010E0C8010C2C02C0959587950A94E2F7F9
:1027700080FF1DC0D7015D962D913D914D915C91DB
:1027800090971C966D917D918D919C911F970E94C1
:102790006730F50120813181428153810E94673089
:1027A000D70199966D937D938D939C939C97BFEFE2
:1027B000CB1ADB0AE4E0EE0EF11CF4E0AF0EB11C24
:1027C00023E0C216D10469F6B0CF8CE0E0EDF6E06C
:1027D000DF011D928A95E9F702C08AE03BC722FC1F
:1027E00003C0112309F441C5B091A906BBA7BB23BF
:1027F000D1F020E030E0A90168AD79AD8AAD9BADA4
:102800000E945D3187FF0FC08091A806843071F06F
:1028100086E08093A706992009F43BC58091A8061D
:10282000823030F408C09110F9CF05C0992019F01A
:1028300086E08093A7068091A70681110BC70091BF
:10284000AB067E01E9E1EE0EF11C47EAC42E46E03C
:10285000D42EA12CB12C612E712CC3010A2C02C0E4
:10286000959587950A94E2F780FF35C091103DC099
:102870000023F9F0D60199962D913D914D915C91EF
:102880009C975D966D917D918D919C9190970E9402
:1028900068309B01AC01F701608171818281938175
:1028A0000E946830D7016D937D938D939C9313970D
:1028B0001CC0F6012485358546855785D7016D9165
:1028C0007D918D919C910E946830F70160837183A6
:1028D000828393830AC0F60184859585A685B78592
:1028E000F70180839183A283B383FFEFAF1ABF0AFE
:1028F00024E0E20EF11C34E0C30ED11C43E0A41628
:10290000B10409F0AACF5091A8065CAB543040F452
:10291000523008F04CC0552371F0513021F198C469
:102920008CA9843009F094C4112309F491C486E081
:102930008093A7068DC41123D1F3A0903901B090E4
:102940003A01C0903B01D0903C01E9A0FAA00BA154
:102950001CA12D8D3E8D4F8D58A1698D7A8D8B8D4B
:102960009C8D812C73C4112311F39BA5911109C077
:10297000B091AF06A091B006F091B106E091B20619
:1029800004C0B8ADA9ADFAADEBADE9A0FAA00BA1BA
:102990001CA12D8D3E8D4F8D58A1698D7A8D8B8D0B
:1029A0009C8D8BA4AB2EBA2ECF2EDE2E4FC4A091C1
:1029B000C206A8ABEA2FF0E06096FFAFEEAF6097DB
:1029C00081E090E001C0880FAA95EAF7809518236E
:1029D00009F4ADCF20E030E0A9016CA57DA58EA55E
:1029E0009FA50E945D319091C00681112EC0E1E04B
:1029F000F0E0EC0FFD1F24E0929FE00DF11D11248B
:102A0000C484D584E684F78420E030E0A901C701BE
:102A1000B6010E945D311091C106811100C120E014
:102A200030E0A901E1E0F0E0EC0FFD1F84E0189F29
:102A3000E00DF11D112464857585868597850E94BA
:102A40005D31882309F473CFEAC0892F90E08C01AF
:102A5000000F111F000F111FA1E0B0E0AC0FBD1F50
:102A6000A00FB11FF801ED54F94F2081318142814F
:102A7000538158966D917D918D919C915B970E94A9
:102A800067304B015C018091C10690E01C01220C73
:102A9000331C220C331CE1E0F0E0EC0FFD1FE20DD3
:102AA000F31DD101AD54B94F2D913D914D915C91E4
:102AB000608D718D828D938D0E9467302B013C015A
:102AC000FE013D968CE0DF011D928A95E9F720E03A
:102AD00030E040E850E46CA57DA58EA59FA50E943E
:102AE00066342CA53DA54EA55FA50E9466346B01FA
:102AF0007C01A5019401C501B4010E9466349B01CB
:102B0000AC01C701B6010E9467306B017C01A301D3
:102B10009201C301B2010E9466349B01AC01C7015E
:102B2000B6010E9467306B017C0120E030E0A90112
:102B30000E945D3187FF04C084E08093A7068AC5A8
:102B4000C701B6010E9405356B017C01A30192010A
:102B5000C501B4010E9492339B01AC01C701B601CB
:102B600090580E9467316B017C01BCA9B33021F4FD
:102B7000F7FAF094F7F8F09420E030E0A9016CA5A2
:102B80007DA58EA59FA50E945D3187FF0DC0F7FA38
:102B9000F094F7F8F0942CA53DA54EA55FA55058EC
:102BA0002CA73DA74EA75FA741E050E04C0F5D1F4B
:102BB000040F151FA7019601C301B2010E946634DC
:102BC0009B01AC01C501B4010E94673020E030E0F8
:102BD00040E05FE30E946634D8011C966D937D93BC
:102BE0008D939C931F9701E010E00C0F1D1F020DA9
:102BF000131DA7019601C501B4010E946634A3010B
:102C000092010E94683020E030E040E05FE30E94E3
:102C10006634F801648775878687978715C0E1E079
:102C2000F0E0EC0FFD1F24E0129FE00DF11D1124D8
:102C30002485358546855785C701B6010E949233A4
:102C40006CA77DA78EA79FA73BA531110CC0409113
:102C5000AF0648AF5091B00659AF8091B1068AAF28
:102C60009091B2069BAFA091C106ACAFB091C006E7
:102C70002196BFAF2197E4E0BE9F800111242DE093
:102C800030E02C0F3D1F200F311F62963FAF2EAF5B
:102C90006297D9018D909D90AD90BC90F801ED5454
:102CA000F94F2081318142815381C501B4010E94D5
:102CB000683066966CAF7DAF8EAF9FAF6697ECAD18
:102CC000B4E0EB9F100111242DE030E02C0F3D1FEC
:102CD000220D331D68963FAF2EAF6897D901CD9076
:102CE000DD90ED90FC90F101ED54F94F20813181A0
:102CF00042815381C701B6010E9468306C966CAF67
:102D00007DAF8EAF9FAF6C97E8A9B4E0EB9FC00199
:102D10001124FC01ED54F94F20813181428153810E
:102D20002A962CAF3DAF4EAF5FAF2A97E9E1F0E0B6
:102D3000EC0FFD1FE80FF91F608171818281938183
:102D40000E9467302E966CAF7DAF8EAF9FAF2E97EF
:102D50002401350177FA709477F87094D701C60191
:102D6000B05888AB99ABAAABBBABE9E1F0E0EC0F94
:102D7000FD1FE00FF11F66962CAD3DAD4EAD5FAD72
:102D8000669760817181828193810E9467306B01B7
:102D90007C01E9E1F0E0EC0FFD1FE20DF31D6C9604
:102DA0002CAD3DAD4EAD5FAD6C9760817181828180
:102DB00093810E9467304B015C01A7019601C3011A
:102DC000B2010E94663426966CAF7DAF8EAF9FAF86
:102DD0002697A501940168A979A98AA99BA90E94AF
:102DE00066349B01AC0126966CAD7DAD8EAD9FAD7A
:102DF00026970E94683026966CAF7DAF8EAF9FAF4E
:102E00002697A5019401C301B2010E9466344B01CB
:102E10005C01A701960168A979A98AA99BA90E94CA
:102E200066349B01AC01C501B4010E94673026964F
:102E30002CAD3DAD4EAD5FAD26970E94E7306B01E6
:102E40007C019CA920E030E0A901923079F4C7010F
:102E5000B6010E947F3387FD19C02BED3FE049EC9E
:102E600050E4C701B6010E9467300EC0C701B60129
:102E70000E945D31181654F02BED3FE049EC50E410
:102E8000C701B6010E9468306B017C01A701960161
:102E90006CA57DA58EA59FA50E9466342E962CADAF
:102EA0003DAD4EAD5FAD2E975F770E9492334B01E3
:102EB0005C0120E030E0A9010E945D31882309F423
:102EC000C7C120913E0130913F0140914001509196
:102ED0004101C501B4010E9467310E944C320E9439
:102EE000E03124967FAF6EAF24974B01A12CB12C1B
:102EF000ABA5AA2381F0C501B4010E940F329B014A
:102F0000AC0168AD79AD8AAD9BAD0E94663468AF07
:102F100079AF8AAF9BAFC501B4010E940F324B015C
:102F20005C019B01AC01C701B6010E9467316CA72F
:102F30007DA78EA79FA7A50194012E966CAD7DADB0
:102F40008EAD9FAD2E970E9467312E966CAF7DAFF0
:102F50008EAF9FAF2E9720E030E040E05FE36CA59E
:102F60007DA58EA59FA50E9466342CA53DA54EA5E6
:102F70005FA50E9466349B01AC0160E070E080E8D0
:102F80009FE30E9467306CAB7DAB8EAB9FAB6096CE
:102F9000EEADFFAD6097EE0FFF1FEE0FFF1F21E0BC
:102FA00030E02C0F3D1FE20FF31F2A968CAD9DAD34
:102FB000AEADBFAD2A9780839183A283B383912C5A
:102FC00022242394312CD90121963FAD219724E06E
:102FD000329FA00DB11D11242896BFAFAEAF289728
:102FE00041E050E04C0F5D1F9CAD84E0989F400D88
:102FF000511D112460965FAF4EAF60972296FFAFD0
:10300000EEAF22972496AEADBFAD24972A163B06AD
:1030100008F00BC180915C0190E0292D092C000C77
:10302000330B28173907F4F528A939A94AA95BA950
:103030006CA97DA98EA99FA90E9466346B017C01B1
:10304000A30192016CA57DA58EA59FA50E94663463
:10305000A70196010E9468305B018C01A3019201D7
:103060006CA97DA98EA99FA90E9466346B017C0181
:1030700028A939A94AA95BA96CA57DA58EA59FA5FC
:103080000E9466349B01AC01C701B6010E94673003
:103090002B013C01939465017801C8AAD9AAEAAA38
:1030A000FBAA68C0B10180E090E00E940F322CA51D
:1030B0003DA54EA55FA50E9466346B017C010E9470
:1030C000623168AB79AB8AAB9BABC701B6010E949A
:1030D000F7344B015C016296EEADFFAD6297C080A4
:1030E000D180E280F380F7FAF094F7F8F0946896D4
:1030F000AEADBFAD68972D913D914D915C912CAFD8
:103100003DAF4EAF5FAFA701960168A979A98AA923
:103110009BA90E9466342B013C012CAD3DAD4EAD08
:103120005FADC501B4010E9466349B01AC01C301CF
:10313000B2010E9468302B013C01A7019601C50134
:10314000B4010E9466346B017C012CAD3DAD4EADE7
:103150005FAD68A979A98AA99BA90E9466349B01E1
:10316000AC01C701B6010E94673068AB79AB8AAB8E
:103170009BAB912CA301920166966CAD7DAD8EAD9B
:103180009FAD66970E9468302896EEADFFAD2897F8
:10319000608371838283938328A939A94AA95BA993
:1031A0006C966CAD7DAD8EAD9FAD6C970E94683016
:1031B0006096AEADBFAD60976D937D938D939C93FC
:1031C00013972E962CAD3DAD4EAD5FAD2E9722964A
:1031D000EEADFFAD229760817181828193810E9463
:1031E00068302296AEADBFAD22976D937D938D93DF
:1031F0009C931397E984FA840B851C852D813E816D
:103200004F81588569817A818B819C818BA4A8AC80
:10321000B9ACCAACDBAC0E94150480915D01811190
:1032200017C0BFEF2B1A3B0AEDCEE9A0FAA00BA105
:103230001CA12D8D3E8D4F8D58A1698D7A8D8B8D62
:103240009C8D8BA4A8ACB9ACCAACDBAC0E941504B5
:103250008091A7068111FEC18CE0FE017996A3EB57
:10326000B6E001900D928A95E1F78091AC06882333
:1032700069F00E94C62910926C018091AC068230E0
:1032800019F40E94E32902C01092AC068091A706AF
:10329000E1C186E0DFC185319105E9F510E01092CA
:1032A000AA060AC0823091050CF055C0892B09F09E
:1032B0004EC010E01092A80611111AC00C941510FF
:1032C00011E08531910559F30CF028C18430910546
:1032D00009F451C10CF405C18231910509F44CC0C7
:1032E0000CF014C18A30910509F00CC132E03BA703
:1032F000C60102C0880F991F1A95E2F79C0122218E
:103300003321232B21F0B092A7060C941510282A04
:10331000392A0C941510863191050CF059C084306F
:10332000910509F4D8C024F58130910509F0BACF90
:1033300010E00093A806C0CF863391050CF084C03E
:103340008C31910509F456C04E9709F453C010E032
:10335000E092A706B1CF8230910521F410E0F092FF
:10336000A806AACF039799F710E0E092A806A4CF89
:103370008231910541F410E01092C006F092C1062E
:103380000093C20699CF833191058CF48A30910560
:1033900021F4B2E0BBA70C9415104197C1F610E0E0
:1033A0001092C0060093C106F092C20685CF833109
:1033B000910541F410E00093C006F092C10610920E
:1033C000C2067ACF449719F610E00093AA0674CF8C
:1033D0008035910521F410E0A092A8066DCF8135CB
:1033E0009105D4F58533910509F0A6CF10E0992415
:1033F000939462CF10E020E030E040E251E4C3015A
:10340000B2010E9466340E9449350E94D931693167
:10341000E1E07E07B1F03CF46831714009F098CFEB
:1034200053E05BA749CF6C3231E0730739F06D325E
:10343000714009F08DCF96E09BA73ECF85E08BA72A
:103440003BCFF4E0FBA738CFCC970CF080CF10E057
:1034500066536093C30630CF8C359105D9F410E0E4
:1034600020E030E040E251E4C301B2010E94663442
:103470000E9449350E94D9316839A3E07A0739F0B2
:103480006939734009F064CF28E02BA715CFE7E036
:10349000EBA712CF8D3591057CF48A35910521F487
:1034A00010E00093AB0608CF8B35910509F04FCFA4
:1034B00010E01092AB0600CF8D35910521F410E09D
:1034C0000093A906F9CE8E35910509F040CF10E0A2
:1034D0001092A906F1CEE1E0EBA70C94151013E0D1
:1034E000F0CE8130910509F424CF24F4892B09F41E
:1034F000E1CE2ECF8230910509F431CF039709F444
:1035000034CF26CF419709F44BCF22CF8331910599
:1035100009F451CF449709F458CF1ACF803591055B
:1035200009F45ACF8CF48533910509F460CF44F443
:103530008C31910509F45FCF4E9709F45CCF08CF29
:10354000CC970CF485CF04CF8C35910509F488CF46
:103550004CF48A35910509F4A4CF8B35910509F413
:10356000A8CFF6CE8D35910509F4AACF8E359105F9
:1035700009F4AECFEDCEF1E0FBA7BACE15E0843072
:10358000910521F48FEF8093AD0696CE853091059D
:10359000BCF48130910509F4ABCE34F4892B09F0E9
:1035A000D7CE0093AC0688CE8230910519F4F09204
:1035B000AC0682CE039709F0CBCE0093AD067CCE4D
:1035C0008830910519F40093AE0676CE89309105C6
:1035D00034F4059709F0BCCE1092AD066DCE89305B
:1035E000910519F41092AE0667CE4E9701F3B0CE56
:1035F0008430910511F410E0C5CF85309105ACF40D
:103600008130910511F40C9415102CF4892B09F0DC
:103610009ECE10E0C6CF8230910511F410E0C7CFE6
:10362000039709F094CE10E0C8CF8830910511F4CB
:1036300010E0C9CF893091052CF4059709F087CEA9
:1036400010E0CACF8930910511F410E0CBCF4E972E
:1036500029F37DCEC55ADF4F0FB6F894DEBF0FBEFB
:10366000CDBFDF91CF911F910F91FF90EF90DF9031
:10367000CF90BF90AF909F908F907F906F905F9012
:103680004F903F902F900895CF93DF9323E3829F35
:10369000C0011124EC01DD5F42E350E0BE018CED7E
:1036A00096E00E94C70A892B59F41092DC0642E387
:1036B00050E06CED76E0CE010E949E0F80E001C0EC
:1036C00081E0DF91CF910895409132065091330609
:1036D000609134067091350680912E0690912F06E8
:1036E000A0913006B0913106840F951FA61FB71F19
:1036F000813022EE920724E0A207B10550F48093B6
:10370000320690933306A0933406B093350680E0DA
:103710000895925EA440B1098093320690933306D7
:10372000A0933406B093350681E008953FB7F8942E
:103730008091870690918806A0918906B0918A06AB
:1037400026B5A89B05C02F3F19F00196A11DB11DFC
:103750003FBFBA2FA92F982F8827820F911DA11D37
:10376000B11DBC01CD0142E0660F771F881F991F74
:103770004A95D1F708951F920F920FB60F92112418
:103780002F933F938F939F93AF93BF938091830623
:1037900090918406A0918506B091860630918206AC
:1037A00023E0230F2D3720F40196A11DB11D05C084
:1037B00026E8230F0296A11DB11D20938206809357
:1037C000830690938406A0938506B0938606809125
:1037D000870690918806A0918906B0918A06019685
:1037E000A11DB11D8093870690938806A09389063A
:1037F000B0938A06BF91AF919F918F913F912F9186
:103800000F900FBE0F901F9018959B01AC012032B6
:1038100083E038074105510520F420E233E040E021
:1038200050E060E070E788E399E30E94833521155A
:10383000310581E04807510518F4B90181E02FC036
:103840002115310588E048075105A8F4DA01C901BE
:10385000F3E0B695A79597958795FA95D1F7BC01B2
:103860009C01AD01A3E0220F331F441F551FAA95F1
:10387000D1F782E014C0DA01C90126E0B695A79518
:10388000979587952A95D1F7BC019C01AD01E6E09B
:10389000220F331F441F551FEA95D1F783E0909103
:1038A0008100987F892B80938100709389006093B9
:1038B000880020932E0630932F06409330065093B5
:1038C000310608951F920F920FB60F9211248F9315
:1038D0009F938BB190913D01907C8F73892B8BB915
:1038E0001092B1009F918F910F900FBE0F901F907B
:1038F000189580916F008D7F80936F0080915A01A1
:103900008F3F21F490915F0195FF089590E00E9410
:10391000D02780914A0182FF02C028980895289AF2
:1039200008951F920F920FB60F9211240F931F93B9
:103930002F933F934F935F936F937F938F939F93B7
:10394000AF93BF93CF93DF93EF93FF9380911906CB
:103950008111D8C28BB190918106907A8F75892B95
:103960008BB98BB18F7390918106892B8BB9809124
:1039700080068093B20082E08093B10081E0809362
:1039800019067894C0911706D0911806209709F06F
:103990008AC09091160680911506981741F0C09143
:1039A00015068BE3C89FE0011124C151DE4FD0936F
:1039B0001806C0931706209709F46EC080915E0127
:1039C0008330D1F46BA17CA18DA19EA160933606BA
:1039D0007093370680933806909339060E94051C31
:1039E00080E091E7A2E0B0E0809332069093330646
:1039F000A0933406B09335068BA59CA5ADA5BEA5B6
:103A0000AC01BD017595679557954795840F951F36
:103A1000A61FB71F80933A0690933B06A0933C06DF
:103A2000B0933D064D855E856F857889DB01CA01BF
:103A3000B595A79597958795B095A0959095819503
:103A40009F4FAF4FBF4F80931A0690931B06A093D2
:103A50001C06B0931D0680931E0690931F06A0932C
:103A60002006B09321068093220690932306A0930C
:103A70002406B093250640932606509327066093AC
:103A800028067093290610922A0610922B0610928F
:103A90002C0610922D0607C00E94791C80915F01B0
:103AA000846080935F01C0911706D091180620971B
:103AB00009F41FC228812093810640911A06509173
:103AC0001B0660911C0670911D0689819A81AB814D
:103AD000BC81840F951FA61FB71F80931A06909371
:103AE0001B06A0931C06B0931D06181619061A068D
:103AF0001B068CF5322F30643093810640912606E8
:103B0000509127066091280670912906841B950B19
:103B1000A60BB70B80931A0690931B06A0931C0666
:103B2000B0931D068091600190916101A0916201A6
:103B3000B091630125FF04C00197A109B10903C039
:103B40000196A11DB11D8093600190936101A09326
:103B50006201B093630140911E0650911F0660916F
:103B60002006709121068D819E81AF81B885840FDA
:103B7000951FA61FB71F80931E0690931F06A09344
:103B80002006B0932106181619061A061B0664F5BE
:103B9000209181062068209381064091260650914D
:103BA00027066091280670912906841B950BA60BA9
:103BB000B70B80931E0690931F06A0932006B09328
:103BC00021068091640190916501A0916601B091F8
:103BD00067010197A109B109809364019093650180
:103BE000A0936601B093670140912206509123068D
:103BF000609124067091250689859A85AB85BC85E0
:103C0000840F951FA61FB71F80932206909323064B
:103C1000A0932406B0932506181619061A061B064B
:103C200064F5209181062068209381064091260644
:103C3000509127066091280670912906841B950BE8
:103C4000A60BB70B8093220690932306A09324061D
:103C5000B09325068091680190916901A0916A0155
:103C6000B0916B010197A109B1098093680190930C
:103C70006901A0936A01B0936B0180912A0690912B
:103C80002B06A0912C06B0912D060196A11DB11D09
:103C900080932A0690932B06A0932C06B0932D06B2
:103CA0004D855E856F85788984179507A607B707C8
:103CB00008F00DC120915E01243029F50E94641B9B
:103CC000882309F416C18091360690913706A09199
:103CD0003806B09139060BA51CA52DA53EA50817E1
:103CE00019072A073B0740F00E94791C80915F0169
:103CF000846080935F01FDC0BC01CD01601B710B2E
:103D0000820B930BDBC04FA558A969A97AA9841728
:103D10009507A607B707C8F50E94641B882309F416
:103D2000E8C0409136065091370660913806709190
:103D300039068BA59CA5ADA5BEA5840F951FA61F12
:103D4000B71F8093360690933706A0933806B0933A
:103D500039064FA958AD69AD7AAD84179507A60706
:103D6000B70740F040933606509337066093380605
:103D70007093390660913606709137068091380647
:103D8000909139060E94051CB4C04BA95CA96DA98D
:103D90007EA984179507A607B70708F47EC0841785
:103DA0009507A607B70779F5409136065091370673
:103DB00060913806709139068FA998ADA9ADBAAD5A
:103DC000481759076A077B0729F480E091E7A2E0CA
:103DD000B0E010C040913206509133066091340635
:103DE0007091350680E092EEA4E0B0E0841B950B64
:103DF000A60BB70B8093320690933306A09334063C
:103E0000B093350676C00E94641B882309F471C004
:103E10008091360690913706A0913806B091390608
:103E200040913A0650913B0660913C0670913D06E8
:103E3000481759076A077B0748F44BA55CA56DA591
:103E40007EA5841B950BA60BB70B04C0B695A79552
:103E5000979587958093360690933706A0933806FA
:103E6000B09339068FA198A5A9A5BAA540913606A9
:103E700050913706609138067091390648175907F6
:103E80006A077B0708F076CF809336069093370653
:103E9000A0933806B09339066DCF6FA978AD89AD80
:103EA0009AAD009136061091370620913806309170
:103EB00039060617170728073907D9F06093360621
:103EC0007093370680933806909339065BCF109233
:103ED00018061092170690911606809115069817ED
:103EE00041F0809115068F5F823109F480E0809364
:103EF00015069091810680913D0189278093810666
:103F000010921906FF91EF91DF91CF91BF91AF9180
:103F10009F918F917F916F915F914F913F912F91E1
:103F20001F910F910F900FBE0F901F9018958091C9
:103F30004A0182FF02C0289A01C0289880915E0140
:103F4000833081F480913D0180938106809134011A
:103F5000880F845081958093800680916F008260E5
:103F600080936F00089580915E01823029F483E090
:103F700080935E010C94971F089565E080E090E0C7
:103F80000E94593046E350E067E271E081E090E042
:103F90000C949E0F882309F45EC080E090E0AAE7AD
:103FA000B4E48093270190932801A0932901B09352
:103FB0002A0180E090E0AAE7B3E480932B0190937C
:103FC0002C01A0932D01B0932E0180932F0190938B
:103FD0003001A0933101B09332012AE020933401E3
:103FE0008093350190933601A0933701B093380147
:103FF00080E090E0AAEFB3E48093390190933A0116
:10400000A0933B01B0933C0180E090EAACE0B7E4C0
:104010008093420190934301A0934401B0934501E2
:104020008DEC9CECACECBDE380933E0190933F01A2
:10403000A0934001B093410180EA80933D018DEC53
:104040009CECACE4BDE38093460190934701A093C0
:104050004801B093490182E080934A0110924B01DC
:1040600080E090E0A8ECB1E480934C0190934D0186
:10407000A0934E01B0934F0180E090E0AAE7B3E433
:104080008093500190935101A0935201B09353013A
:1040900084E690E0909355018093540180E090E095
:1040A000A0E8BFE38093560190935701A093580175
:1040B000B093590189E180935A0193E090935B0199
:1040C00080935C010C94BD1F2DE0829FC0011124E0
:1040D0004CE050E09E5F0C949E0F1F93CF93DF93B4
:1040E000182FEB018DE0189FB00111247E5F4CE08A
:1040F00050E0CE010E94C70A892B59F48CE0FE01E2
:1041000011928A95E9F7BE01812F0E94642080E018
:1041100001C081E0DF91CF911F9108951F920F920E
:104120000FB60F9211242F933F934F935F936F938A
:104130007F938F939F93AF93BF93EF93FF93809160
:10414000C600813291F028F48831A9F40E94E32955
:1041500023C08F3331F08E3771F480915F0182601C
:1041600007C080915F01816003C080915F0188601A
:1041700080935F0111C0E091EE0191E09E0F9038B5
:1041800009F490E02091ED01921731F0F0E0E3594D
:10419000FE4F80839093EE01FF91EF91BF91AF911D
:1041A0009F918F917F916F915F914F913F912F914F
:1041B0000F900FBE0F901F9018951F920F920FB681
:1041C0000F9211248F939F93EF93FF9380917F061B
:1041D000E82FF0E0E15CF94F90819093C6008F5F8B
:1041E000803409F480E080937F0690913E06891325
:1041F00005C08091C1008F7D8093C100FF91EF9138
:104200009F918F910F900FBE0F901F901895E09186
:104210003E0691E09E0F903409F490E020917F06D5
:10422000291305C020915F0124FFF8CF0895F0E025
:10423000E15CF94F808390933E068091C1008062DB
:104240008093C1000895CF93C82F86E595E00E9422
:10425000A8258C2F90E0FC013197EC30F10548F552
:10426000E857FF4F0C94A53584E495E020C08CE21C
:1042700095E01DC086E195E01AC087E095E017C083
:1042800081EF94E014C08FED94E011C08EEC94E0C7
:104290000EC082EC94E00BC083EB94E008C082E98E
:1042A00094E005C083E894E002C088E794E00E94AF
:1042B000A82585E794E0CF910C94A825CF93DF93B0
:1042C00081E794E00E94A825C7E2D1E06881798166
:1042D0008A819B810E9457248EE594E00E94A82544
:1042E0006C817D818E819F810E9457248BE494E0B4
:1042F0000E94A825688579858A859B850E94572418
:1043000088E394E00E94A8256D8570E080E090E04D
:104310000E9401258FE194E00E94A8256E857F858B
:10432000888999890E94572482E094E00E94A825F8
:104330006A897B898C899D890E94572485EE93E048
:104340000E94A8256E8970E080E090E00E9401251F
:1043500087EC93E00E94A8258E890E94752580EC49
:1043600093E00E94A8256BA970E080E090E00E9495
:10437000012582EA93E00E94A82520E030E041E692
:1043800055E46B8D7C8D8D8D9E8D0E9467310E94D2
:10439000572483E893E00E94A8256F8D78A189A116
:1043A0009AA10E94572483E693E00E94A8256F8972
:1043B000788D898D9A8D0E9457248AE493E00E941B
:1043C000A8256DA970E080E090E00E9401258BE2B5
:1043D00093E00E94A8256CA970E080E090E00E9424
:1043E000012582E193E00E94A8256BA1617070E035
:1043F00080E090E00E94012585EF92E00E94A825D0
:104400006BA16695617070E080E090E00E940125EC
:104410008BED92E00E94A8256BA162FB662760F9F4
:1044200070E080E090E00E94012589EB92E00E941C
:10443000A8256BA163FB662760F970E080E090E03F
:104440000E9401258EE992E00E94A8256BA1629549
:10445000617070E080E090E00E94012582E892E0C7
:104460000E94A8256CA170E080E090E00E940125E8
:1044700083E692E00E94A8258CA10E9475258BE519
:1044800092E00E94A8256DA17EA18FA198A50E940F
:1044900057248EE392E00E94A82569A57AA58BA5F2
:1044A0009CA50E94572481E292E00E94A8256DA558
:1044B0007EA580E090E00E94012582E092E00E94CB
:1044C000A8256FA578A989A99AA90E94572489EEE1
:1044D00091E0DF91CF910C94A825811104C080EF69
:1044E00097E00C94A8250C9423214F925F926F9231
:1044F0007F92AF92BF92CF92DF92EF92FF920F9393
:104500001F93CF93DF938C01EB01FC014588568804
:104510006788708CAD88BE88CF88D88C9501A6013D
:10452000C301B2010E945D3187FF42C0A301920125
:10453000C301B2010E9466342B013C01809142010B
:1045400090914301A0914401B0914501BC01CD017E
:1045500090589B01AC010E946830F801258D368D82
:10456000478D50A10E9466349B01AC01C301B2018A
:104570000E9467300E9405357B018C019B01AC01D4
:10458000B501C6010E945D3187FF02C07501860139
:104590009701A801B501C6010E945D31882341F051
:1045A000C701D8018D8B9E8BAF8BB88F81E089A31B
:1045B000DF91CF911F910F91FF90EF90DF90CF90FF
:1045C000BF90AF907F906F905F904F9008954F9203
:1045D0005F926F927F928F929F92AF92BF92CF9293
:1045E000DF92EF92FF920F931F93CF93DF93CDB79C
:1045F000DEB762970FB6F894DEBF0FBECDBF9A8BC1
:10460000898B2A013B0148015901FC0167A970AD62
:1046100081AD92AD0E940F326B017C01A30192012A
:104620000E9466340E9446310E94E0312B013C0119
:10463000E989FA8963A374A385A396A3A5019401CC
:10464000C701B6010E9466340E9446310E94E031E3
:104650004B015C01E989FA8967A370A781A792A73A
:1046600023A534A545A556A5A2E3B0E00E94AB352D
:104670000E94113220E030E040E752E40E946634AC
:104680000E94D93169837A838B839C830E94113283
:104690006D837E838F839887C301B2010E940F329E
:1046A0002B013C01A7019601C701B6010E946634A7
:1046B0006B017C01A3019201C301B2010E94663427
:1046C00069877A878B879C872D813E814F815885AA
:1046D000CA01B9010E9468306D877E878F87988BE9
:1046E00029853A854B855C85C701B6010E946730F4
:1046F0002D853E854F8558890E9467310E9446313D
:104700000E94D9312B013C01C501B4010E940F3236
:104710009B01AC010E9466344B015C01A70196012C
:104720000E9467306B017C0169817A818B819C8159
:1047300090958095709561957F4F8F4F9F4F0E9408
:1047400011329B01AC010E9468309B01AC01C70192
:10475000B6010E9467310E944C32E989FA89C5840A
:10476000D684E784F088A701960124193509460903
:10477000570929833A834B835C830E94D93129816D
:104780003A814B815C81261B370B480B590BDA01B0
:10479000C90157FF3BC0C701B6010E9411322D85E8
:1047A0003E854F8558890E94663429853A854B8518
:1047B0005C850E946730A50194010E9468304B011E
:1047C0005C0120E030E040E850E46D817E818F8123
:1047D00098850E9466349B01AC01C501B4010E941A
:1047E00067310E9446310E94D93197FF03C060E0D3
:1047F00070E0CB01260137016C157D058E059F0504
:1048000014F42B013C0180E090E0DC01E989FA8995
:1048100047A650AA61AA72AA480E591E6A1E7B1E9C
:1048200043AA54AA65AA76AA62960FB6F894DEBF88
:104830000FBECDBFDF91CF911F910F91FF90EF90F1
:10484000DF90CF90BF90AF909F908F907F906F90B0
:104850005F904F9008950F931F93CF93C0E08C2FDC
:104860000E94441B811104C08AE00E94232118C0C9
:104870008091DC068823A1F00CED16E0F80181910F
:104880008F01882319F00E940721F8CF80915E01E3
:10489000863019F00E94DA0F01C08CE00E946D2270
:1048A000CF5FC230E1F6CF911F910F9108958F92A3
:1048B0009F92AF92BF92CF92DF92EF92FF920F93AF
:1048C0001F93CF93DF93CDB7DEB72A970FB6F89437
:1048D000DEBF0FBECDBF6B017C0120E030E0A9013F
:1048E0000E945D3187FF07C08DE20E940721F7FA21
:1048F000F094F7F8F09400915B01102F123060F003
:1049000020E030E048EC52E4C701B6010E94663472
:104910006B017C011250F2CF00FF0AC020E030E0B2
:1049200040E251E4C701B6010E9466346B017C018C
:1049300020E030E040E05FE3C701B6010E9468304C
:104940000E94D931E1E0F0E0EC0FFD1FE00FF11D16
:104950002EE2208310E03AE0832E912CA12CB12C82
:10496000611571058105910511F480E315C01013DF
:1049700001C01F5FEE24E394F12CEC0EFD1EE10E4E
:10498000F11CA50194010E948335605DF7016083ED
:10499000B901CA011F5FE4CF101748F4E1E0F0E06D
:1049A000EC0FFD1FE10FF11D80831F5FF5CF10138A
:1049B0000BC081E0810FE1E0F0E0EC0FFD1FE80F9C
:1049C000F11D1E5F80E38083112341F0FE01E10FA2
:1049D000F11D80810E9407211150F6CF2A960FB653
:1049E000F894DEBF0FBECDBFDF91CF911F910F9125
:1049F000FF90EF90DF90CF90BF90AF909F908F90FF
:104A000008958F929F92AF92BF92CF92DF92EF92D2
:104A1000FF92CF93DF93CDB7DEB72A970FB6F89406
:104A2000DEBF0FBECDBF6B017C0197FF0BC08DE2D7
:104A30000E940721F094E094D094C094C11CD11C32
:104A4000E11CF11CC701B601CD28CE28CF2899F46E
:104A500080E32A960FB6F894DEBF0FBECDBFDF917C
:104A6000CF91FF90EF90DF90CF90BF90AF909F904D
:104A70008F900C94072120E04AE0842E912CA12CE9
:104A8000B12CFF24F394F20ECC24C394D12CCC0E81
:104A9000DD1EC20ED11CA50194010E948335605D0C
:104AA000F6016083B901CA012F2D611571058105D9
:104AB000910539F7FF2041F0FE01EF0DF11D8081D6
:104AC0000E940721FA94F6CF2A960FB6F894DEBF1B
:104AD0000FBECDBFDF91CF91FF90EF90DF90CF90D1
:104AE000BF90AF909F908F900895EF92FF920F9399
:104AF0001F93CF93DF93CDB7DEB728970FB6F89407
:104B0000DEBF0FBECDBF9E012F5F3F4F79018E01EB
:104B1000075F1F4FF901982F917091938695E017C9
:104B2000F107C9F7F80182918F01805D0E9407218A
:104B30000E151F05B9F728960FB6F894DEBF0FBE05
:104B4000CDBFDF91CF911F910F91FF90EF9008950E
:104B5000CF93DF93FC018491EF012196882321F00C
:104B60000E940721FE01F7CFDF91CF9108954F9268
:104B70005F926F927F928F929F92AF92BF92CF92ED
:104B8000DF92EF92FF920F931F93CF93DF93F090FA
:104B90001506C0E0D0E08BE3E82E80911606F816EB
:104BA00009F441C08F2D90E0E89E9001E99E300D00
:104BB0001124A90141515E4F6A01209761F129A199
:104BC000211104C0FA0121A1222329F189889A88A0
:104BD000AB88BC88E89EF001E99EF00D1124E151FC
:104BE000FE4FA5019401658976898789908D0E9481
:104BF00067312B013C01A50194016D897E898F8964
:104C0000988D0E946731AB01BC0193018201CE01F6
:104C10000E94E72219A2F394F2E1FF1611F0E601D7
:104C2000BCCFF12CFCCFC988DA88EB88FC88A701BF
:104C3000960160E070E0CB010E9467314B015C019E
:104C4000A70196016D897E898F89988D0E946731B1
:104C5000AB01BC0195018401CE010E94E72219A29B
:104C6000DF91CF911F910F91FF90EF90DF90CF9048
:104C7000BF90AF909F908F907F906F905F904F907C
:104C80000895EF92FF920F931F93CF93DF93C091FC
:104C9000150610E0D0E080E090E00BE320911606CE
:104CA000C217D9F00C9F90011124A90141515E4F08
:104CB0007A01009741F0FC0122A1211104C0612F6B
:104CC0007D2F0E947522CF5FC23129F0812F9D2F49
:104CD0001E2DDF2DE3CFC0E0F9CF009771F0FC016E
:104CE00022A121110AC0612F7D2FDF91CF911F9149
:104CF0000F91FF90EF900C947522DF91CF911F914F
:104D00000F91FF90EF9008952F923F924F925F92F4
:104D10006F927F928F929F92AF92BF92CF92DF92CB
:104D2000EF92FF920F931F93CF93DF93109116068C
:104D300040904201509043016090440170904501C1
:104D400077FA709477F87094A12CB12CC0E0D0E081
:104D50008BE3C82E80911506181709F46CC0111149
:104D600001C012E11150C19EC00111249C012151CA
:104D70003E4F1901209719F45E01E101EBCFA11418
:104D8000B104D1F3D98CEA8CFB8C0C8D2D2D3E2DEA
:104D90004F2D502F6D897E898F89988D0E945D31AE
:104DA000882351F38AA181113BC0F501858896883B
:104DB000A788B08CA50194016D2D7E2D8F2D902F8D
:104DC0000E947F33181664F5A5019401C501B40152
:104DD0000E9466344B015C01A3019201C301B20140
:104DE0000E9468302D8D3E8D4F8D58A10E946634F3
:104DF0009B01AC01C501B4010E9467300E940535DA
:104E00004B015C019B01AC016D2D7E2D8F2D902FF0
:104E10000E945D3187FD04C0D82CE92CFA2C0B2DA3
:104E20008D2D9E2DAF2DB02F8D8B9E8BAF8BB88F80
:104E3000F1E0F9A3A1CFDF91CF911F910F91FF90E6
:104E4000EF90DF90CF90BF90AF909F908F907F902A
:104E50006F905F904F903F902F9008958F929F9208
:104E6000AF92BF92CF92DF92EF92FF920F931F9378
:104E7000CF93DF93EDE5F1E0C384D484E584F68439
:104E800087809084A184B2846381748185819681B6
:104E9000EBE8F6E06083718382839383848295825A
:104EA000A682B782C086D186E286F386C7EAD6E0BC
:104EB0000E94113207E211E0F80120813181428124
:104EC00053810E9467316C877D878E879F87C501DC
:104ED000B4010E941132F801248135814681578145
:104EE0000E946731688B798B8A8B9B8BC701B601D7
:104EF0000E941132F80120853185428553850E9438
:104F000067316C8B7D8B8E8B9F8BDF91CF911F9147
:104F10000F91FF90EF90DF90CF90BF90AF909F9058
:104F20008F9008956115710581059105C1F16A3071
:104F300071058105910548F425E02A95F1F70000F7
:104F40006150710981099109EDCF643671058105C0
:104F5000910548F4E5E3EA95F1F700006A5071091C
:104F600081099109DFCF683EF3E07F078105910554
:104F700058F4EFE8F1E03197F1F700C00000645613
:104F8000710981099109CECFEFE9FFE03197F1F77F
:104F900000C00000685E734081099109C3CF089585
:104FA000009741F0EFE9FFE03197F1F700C0000012
:104FB0000197F6CF08953F924F925F926F927F9242
:104FC0008F929F92AF92BF92CF92DF92EF92FF9219
:104FD0000F931F93CF93DF93CDB7DEB768970FB6CC
:104FE000F894DEBF0FBECDBF80915F01882309F426
:104FF000B5C130905F01832D8076F1F186E080931A
:105000005E0187EC95E036FE24C00E94A8258CEB5B
:1050100095E00E94A8258FE995E00E94A82584EFDD
:1050200091E00E94D0278EEE97E00E94A8258CED9B
:1050300097E00E94A82581EA97E00E94A825809128
:105040005F018F7E80935F0180915F0184FFFCCFC1
:105050000EC00E94A82589EA95E00E94A8258FE944
:1050600095E00E94A82584EF91E00E94D0278091CE
:105070005F018F7980935F0134FE04C081E08093EB
:105080005D016CC130FEC9C08CE0E0E6F1E0DE01FC
:105090001D9601900D928A95E1F7E0915E018E2FA9
:1050A00090E088309105D8F4FC01EC56FF4F0C9449
:1050B000A53589E995E011C082E995E00EC08DE83B
:1050C00095E00BC087E895E008C081E895E005C051
:1050D0008AE795E002C083E795E00E94A8258CE668
:1050E00095E00E94A8256E018DE0C80ED11C97E2C4
:1050F000A92E91E0B92E8E010F5F1F4F4E01E9E1FD
:105100008E0E911C7801F6016191719181919191BE
:105110006F01F50141905190619071905F010E9483
:105120001132A30192010E9467313701F7016083B8
:1051300071838283938320914A0120FF0BC02BE867
:1051400032E441E25DE30E946634F70160837183DB
:1051500082839383F4E0EF0EF11CF301608171818F
:10516000828193810E9457248AE695E00E94A825B7
:10517000C814D90441F684E695E00E94A82587EA80
:10518000E82E86E0F82ED12C80914A01F70121A566
:1051900032A543A554A580FF0DC0658D768D878D02
:1051A00090A10E9468302BE832E441E25DE30E9466
:1051B000663406C0658D768D878D90A10E9468301B
:1051C0009B01AC01F80160817181828193810E9411
:1051D0006730F8016083718382839383F801619162
:1051E0007191819191918F010E945724F2E0DF1615
:1051F00021F082E695E00E94A825D39484E0E80E91
:10520000F11CE3E0DE12C0CF8EE595E00E94A825F8
:1052100080915F018E7F80935F0133FE0EC080918D
:105220005E01833029F484E080935E0110926C016A
:1052300080915F01877F80935F0132FE7FC0E091A4
:105240001706F0911806309709F471C0C584D6840A
:10525000E784F08880912A0690912B06A0912C0675
:10526000B0912D06C81AD90AEA0AFB0A0091150660
:10527000FBE30F9F8001112401511E4FC701B601AE
:105280000E941132F801258D368D478D50A10E9464
:1052900066344B015C01F8016585768587859089C8
:1052A0000E9411329B01AC01C501B4010E9467311B
:1052B000F801658F768F878F90A3C586D686E7869F
:1052C000F08A158A168A178A108E118E128E138E06
:1052D000148E12A281E081A30E9484260E9441269E
:1052E0000E94B725109236061092370610923806A3
:1052F0001092390660E070E0CB010E94051C80E04E
:1053000091E7A2E0B0E08093320690933306A09339
:105310003406B093350610922A0610922B0610928E
:105320002C0610922D0682E080935E0102C010923E
:105330005E0180915F018B7F80935F0131FE0EC023
:105340000E94B31F80914A0181FF03C081E08093D6
:105350006C0180915F018D7F80935F0168960FB62D
:10536000F894DEBF0FBECDBFDF91CF911F910F919B
:10537000FF90EF90DF90CF90BF90AF909F908F9075
:105380007F906F905F904F903F900895CF93CBE3C5
:105390009091160680911506981749F08091150690
:1053A000C89FC001112481519E4F892B21F4809107
:1053B0005E01833031F40E94DB2780915D018823F8
:1053C00039F3CF91089580915F0184FD13C08091DE
:1053D0005F01806180935F012C98419880915E010C
:1053E0008350833038F480915F01806280935F0145
:1053F0000C94791C08951F920F920FB60F921124EE
:105400002F933F934F935F936F937F938F939F93CC
:10541000AF93BF93EF93FF93309912C0309903C0BD
:105420000E94E3290DC0309904C080915F0188601B
:1054300005C0309905C080915F01826080935F0153
:10544000FF91EF91BF91AF919F918F917F916F915C
:105450005F914F913F912F910F900FBE0F901F9032
:1054600018954F925F926F927F928F929F92AF9218
:10547000BF92CF92DF92EF92FF920F931F93CF9341
:10548000DF93CDB7DEB765970FB6F894DEBF0FBEDA
:10549000CDBF8091DC06843209F068C481E0898B3D
:1054A0008091DD06833409F488C14CF4833211F114
:1054B0008432A1F08111CFC28FEC95E07BC188349A
:1054C00009F4C0C124F4873409F4B1C0C4C28E34D5
:1054D00009F488C2883509F49BC1BDC282E0898B7A
:1054E0008091DE06882311F013E049C40E945E21FA
:1054F00010E045C482E0898B8091DE068111F4CFF3
:1055000000E0BE016F5F7F4F802F0E946D20182F3B
:10551000811104C08AE00E94232131C48FE297E008
:105520000E94A825802F90E0FC013197E730F1051B
:1055300020F4E456FF4F0C94A5358BE297E002C0AF
:1055400087E297E00E94A825CE0101967C0110E039
:1055500025C083E297E0F6CF8FE197E0F3CF8BE1B0
:1055600097E0F0CF87E197E0EDCF83E197E0EACFD6
:105570008FE097E0E7CFF7016081718182819381AD
:105580000E9457241230D1F08DE097E00E94A825A8
:105590001F5FF4E0EF0EF11C133099F080914A0187
:1055A00080FFE9CF2BE832E441E25DE3D7016D9162
:1055B0007D918D919C910E946634E2CF89E097E0C5
:1055C000E5CF0F5F083009F09CCF83E097E00E94A1
:1055D000A82547EAE42E46E0F42E10E080914A0127
:1055E00080FF0EC02BE832E441E25DE3D7019996DB
:1055F0006D917D918D919C919C970E94663405C020
:10560000F70161A572A583A594A50E9457241230C5
:1056100019F081E097E002C08DEF96E00E94A82586
:105620001F5FF4E0EF0EF11C1330C1F661CF82E092
:10563000898B8091DE06811157CF8091A806823038
:1056400091F038F4882361F08130A1F489E997E082
:105650000FC0833059F0843069F48CE897E008C0BB
:105660008DE997E005C085E997E002C081E997E000
:105670000E94A82589E897E00E94A8256091C306AA
:1056800070E06A5C7F4F072E000C880B990B0E941C
:1056900001258091C00681110AC08091C106813028
:1056A00019F484E897E005C08FE797E002C08AE725
:1056B00097E00E94A8258091AA06882319F085E723
:1056C00097E002C080E797E00E94A8258091AB0692
:1056D000882319F08BE697E002C086E697E00E94E7
:1056E000A8258091A906882319F081E697E002C0D9
:1056F0008CE597E00E94A8258091AC06813049F0A6
:1057000028F0823051F480E597E005C088E597E005
:1057100002C084E597E00E94A8258091AD06882309
:1057200051F0813029F08F3F51F488E497E005C0B3
:105730008CE497E002C084E497E00E94A825809161
:10574000AE06882329F0813039F48CE397E002C05B
:1057500080E497E00E94A82589E397E00E94A825AD
:105760006091BF0670E080E090E00E94012586E332
:1057700097E00E94A8258091AA06882379F02BE85B
:1057800032E441E25DE36091AF067091B006809132
:10579000B1069091B2060E94663408C06091AF06CF
:1057A0007091B0068091B1069091B2060E94572484
:1057B00082E397E00E94A8259BCE82E0898B8091AE
:1057C000DE06811191CE10915E01173069F40E94BE
:1057D000E3298EEE97E00E94A82585EA97E00E94D3
:1057E000A82581EA97E0E6CF112311F01BE0C7C29C
:1057F00087E080935E018EEE97E00E94A8258EEAF6
:1058000097E00E94A82581EA97E00E94A825B7C2E8
:1058100082E0898B8091DE06811166CE80915E01E7
:10582000863009F065CE8EEE97E00E94A82586EBC3
:1058300097E00E94A82581EA97E00E94A82510928F
:105840005E0156CE80914A0184FF88C280915E013C
:10585000882311F0863051F685E080935E018091B7
:105860006B008D7780936B000E94971F0091500111
:1058700010915101209152013091530140E061E0BB
:1058800084E00E944F080091500110915101209135
:1058900052013091530140E061E083E00E944F08E3
:1058A00080915401909155010E94D02732E0F32E4F
:1058B000FA9400914C0110914D0120914E013091CC
:1058C0004F0141E060E087E00E944F088091540161
:1058D000909155010E94D02721E0F21619F0FF2087
:1058E000A9F0E6CF00914C0110914D0120914E019D
:1058F00030914F0140E061E087E00E944F088091C5
:105900005401909155010E94D027D2CF0E94791C5A
:105910000E94DB2780915D018111EACD8CE0E0E6F9
:10592000F1E0DF011D928A95E9F70E942E2710927F
:105930005E0180914B0185FD02C01FEF01C011E0A7
:1059400087FD02C06FEF01C061E080915601909128
:105950005701A0915801B09159018A8B9B8BAC8B58
:10596000BD8B062E000C770B880B990B0E94113211
:105970002A893B894C895D890E9466342B013C0150
:10598000A0905001B0905101C0905201D0905301AD
:10599000612F110F770B880B990B0E9411322A8906
:1059A0003B894C895D890E946634812C8301720198
:1059B000A30192010E9415040E94B31F0E94C629F0
:1059C0000E942E2780914A0183FF05C080916B00C1
:1059D000826880936B0010915D01111189CD0E9446
:1059E0002B24CDC182E0898B8091DE06811135C0E8
:1059F000C12CD12C76018C2D0E94441B811104C036
:105A00008AE00E9423211AC08AEF97E00E94A8250D
:105A1000C701B6010E94012588EF97E00E94A825E2
:105A20000CED16E0D8018D918D01882319F00E94AC
:105A30000721F8CF85EF97E00E94A825BFEFCB1A8A
:105A4000DB0AEB0AFB0AE2E0CE16D104E104F10422
:105A500009F44ECDD0CF10E001C011E0BE01635F6C
:105A60007F4FCE0141960E940E2F892B11F411E039
:105A700086C1E98981E08E0F898BF0E0E452F94F0D
:105A800090819D3309F030CD112389F1482F50E0EA
:105A9000282F30E0D901A452B94F9C91241B350B1B
:105AA000F901E452F94F90838F5F9C919111F0CFEF
:105AB000898B80915E01863009F460C10E94DA0F03
:105AC000182F81115CC16D857E858F8598890E9414
:105AD00049350E94E031F3E36F9FC001112442E396
